{
  "_format": "hh-sol-artifact-1",
  "contractName": "TrueFantasySports",
  "sourceName": "contracts/TrueFantasySports.sol",
  "abi": [
    {
      "inputs": [
        {
          "internalType": "uint8",
          "name": "_treeDepth",
          "type": "uint8"
        },
        {
          "internalType": "contract IVerifier",
          "name": "_semaphoreMembershipVerifier",
          "type": "address"
        },
        {
          "internalType": "contract IScoreAndTeamVerifier",
          "name": "_scoreAndTeamVerifier",
          "type": "address"
        }
      ],
      "stateMutability": "nonpayable",
      "type": "constructor"
    },
    {
      "anonymous": false,
      "inputs": [
        {
          "indexed": true,
          "internalType": "uint256",
          "name": "contestGroupId",
          "type": "uint256"
        },
        {
          "indexed": false,
          "internalType": "bytes32",
          "name": "contestName",
          "type": "bytes32"
        },
        {
          "indexed": true,
          "internalType": "uint256",
          "name": "matchId",
          "type": "uint256"
        },
        {
          "indexed": false,
          "internalType": "uint256",
          "name": "entryFee",
          "type": "uint256"
        },
        {
          "indexed": false,
          "internalType": "uint256",
          "name": "teamSubmissionEndTime",
          "type": "uint256"
        },
        {
          "indexed": false,
          "internalType": "uint256",
          "name": "contestCompletionTime",
          "type": "uint256"
        }
      ],
      "name": "ContestCreated",
      "type": "event"
    },
    {
      "anonymous": false,
      "inputs": [
        {
          "indexed": true,
          "internalType": "uint256",
          "name": "groupId",
          "type": "uint256"
        },
        {
          "indexed": false,
          "internalType": "uint8",
          "name": "depth",
          "type": "uint8"
        },
        {
          "indexed": false,
          "internalType": "uint256",
          "name": "zeroValue",
          "type": "uint256"
        }
      ],
      "name": "GroupCreated",
      "type": "event"
    },
    {
      "anonymous": false,
      "inputs": [
        {
          "indexed": true,
          "internalType": "uint256",
          "name": "groupId",
          "type": "uint256"
        },
        {
          "indexed": false,
          "internalType": "uint256",
          "name": "identityCommitment",
          "type": "uint256"
        },
        {
          "indexed": false,
          "internalType": "uint256",
          "name": "root",
          "type": "uint256"
        }
      ],
      "name": "MemberAdded",
      "type": "event"
    },
    {
      "anonymous": false,
      "inputs": [
        {
          "indexed": true,
          "internalType": "uint256",
          "name": "groupId",
          "type": "uint256"
        },
        {
          "indexed": false,
          "internalType": "uint256",
          "name": "identityCommitment",
          "type": "uint256"
        },
        {
          "indexed": false,
          "internalType": "uint256",
          "name": "root",
          "type": "uint256"
        }
      ],
      "name": "MemberRemoved",
      "type": "event"
    },
    {
      "anonymous": false,
      "inputs": [
        {
          "indexed": false,
          "internalType": "uint256",
          "name": "nullifierHash",
          "type": "uint256"
        }
      ],
      "name": "NullifierHashAdded",
      "type": "event"
    },
    {
      "anonymous": false,
      "inputs": [
        {
          "indexed": true,
          "internalType": "uint256",
          "name": "groupId",
          "type": "uint256"
        },
        {
          "indexed": false,
          "internalType": "bytes32",
          "name": "signal",
          "type": "bytes32"
        }
      ],
      "name": "TeamPosted",
      "type": "event"
    },
    {
      "anonymous": false,
      "inputs": [
        {
          "indexed": true,
          "internalType": "uint256",
          "name": "groupId",
          "type": "uint256"
        },
        {
          "indexed": true,
          "internalType": "uint256",
          "name": "teamHash",
          "type": "uint256"
        },
        {
          "indexed": false,
          "internalType": "uint256",
          "name": "score",
          "type": "uint256"
        }
      ],
      "name": "TeamScore",
      "type": "event"
    },
    {
      "inputs": [
        {
          "internalType": "uint256",
          "name": "_contestId",
          "type": "uint256"
        },
        {
          "internalType": "uint256",
          "name": "_identityCommitment",
          "type": "uint256"
        }
      ],
      "name": "addMember",
      "outputs": [],
      "stateMutability": "nonpayable",
      "type": "function"
    },
    {
      "inputs": [
        {
          "internalType": "bytes32",
          "name": "_contestName",
          "type": "bytes32"
        },
        {
          "internalType": "uint256",
          "name": "_matchId",
          "type": "uint256"
        },
        {
          "internalType": "uint256",
          "name": "_teamSubmissionEndTime",
          "type": "uint256"
        },
        {
          "internalType": "uint256",
          "name": "_contestCompletionTime",
          "type": "uint256"
        },
        {
          "internalType": "uint256",
          "name": "_entryFee",
          "type": "uint256"
        },
        {
          "internalType": "uint256",
          "name": "_identityCommitment",
          "type": "uint256"
        }
      ],
      "name": "createContest",
      "outputs": [],
      "stateMutability": "nonpayable",
      "type": "function"
    },
    {
      "inputs": [
        {
          "internalType": "uint256",
          "name": "contestId",
          "type": "uint256"
        }
      ],
      "name": "getContest",
      "outputs": [
        {
          "internalType": "uint256",
          "name": "matchId",
          "type": "uint256"
        },
        {
          "internalType": "uint256",
          "name": "teamSubmissionEndTime",
          "type": "uint256"
        },
        {
          "internalType": "uint256",
          "name": "entryfee",
          "type": "uint256"
        },
        {
          "internalType": "uint256",
          "name": "contestCompletionTime",
          "type": "uint256"
        }
      ],
      "stateMutability": "view",
      "type": "function"
    },
    {
      "inputs": [
        {
          "internalType": "uint256",
          "name": "groupId",
          "type": "uint256"
        }
      ],
      "name": "getDepth",
      "outputs": [
        {
          "internalType": "uint8",
          "name": "",
          "type": "uint8"
        }
      ],
      "stateMutability": "view",
      "type": "function"
    },
    {
      "inputs": [
        {
          "internalType": "uint256",
          "name": "_contestId",
          "type": "uint256"
        }
      ],
      "name": "getHighestScore",
      "outputs": [
        {
          "internalType": "uint256",
          "name": "",
          "type": "uint256"
        }
      ],
      "stateMutability": "view",
      "type": "function"
    },
    {
      "inputs": [
        {
          "internalType": "uint256",
          "name": "groupId",
          "type": "uint256"
        }
      ],
      "name": "getNumberOfLeaves",
      "outputs": [
        {
          "internalType": "uint256",
          "name": "",
          "type": "uint256"
        }
      ],
      "stateMutability": "view",
      "type": "function"
    },
    {
      "inputs": [
        {
          "internalType": "uint256",
          "name": "groupId",
          "type": "uint256"
        }
      ],
      "name": "getRoot",
      "outputs": [
        {
          "internalType": "uint256",
          "name": "",
          "type": "uint256"
        }
      ],
      "stateMutability": "view",
      "type": "function"
    },
    {
      "inputs": [
        {
          "internalType": "uint256",
          "name": "nullifierHash",
          "type": "uint256"
        }
      ],
      "name": "getUserNullifierCount",
      "outputs": [
        {
          "internalType": "uint256",
          "name": "count",
          "type": "uint256"
        }
      ],
      "stateMutability": "view",
      "type": "function"
    },
    {
      "inputs": [
        {
          "internalType": "uint256",
          "name": "_contestId",
          "type": "uint256"
        },
        {
          "internalType": "uint256",
          "name": "_nullifierHash",
          "type": "uint256"
        }
      ],
      "name": "getYourScore",
      "outputs": [
        {
          "internalType": "uint256",
          "name": "",
          "type": "uint256"
        }
      ],
      "stateMutability": "view",
      "type": "function"
    },
    {
      "inputs": [
        {
          "internalType": "bytes32",
          "name": "_teamIdentifier",
          "type": "bytes32"
        },
        {
          "internalType": "bytes32",
          "name": "_teamHash",
          "type": "bytes32"
        },
        {
          "internalType": "uint256",
          "name": "_nullifierHash",
          "type": "uint256"
        },
        {
          "internalType": "uint256",
          "name": "_contestId",
          "type": "uint256"
        },
        {
          "internalType": "uint256[8]",
          "name": "_proof",
          "type": "uint256[8]"
        }
      ],
      "name": "postTeam",
      "outputs": [],
      "stateMutability": "nonpayable",
      "type": "function"
    },
    {
      "inputs": [],
      "name": "scoreAndTeamVerifier",
      "outputs": [
        {
          "internalType": "contract IScoreAndTeamVerifier",
          "name": "",
          "type": "address"
        }
      ],
      "stateMutability": "view",
      "type": "function"
    },
    {
      "inputs": [],
      "name": "semaphoreMembershipVerifier",
      "outputs": [
        {
          "internalType": "contract IVerifier",
          "name": "",
          "type": "address"
        }
      ],
      "stateMutability": "view",
      "type": "function"
    },
    {
      "inputs": [
        {
          "internalType": "bytes32",
          "name": "_teamIdentifier",
          "type": "bytes32"
        },
        {
          "internalType": "uint256",
          "name": "_initialNullifierHash",
          "type": "uint256"
        },
        {
          "internalType": "uint256",
          "name": "_newNullifierHash",
          "type": "uint256"
        },
        {
          "internalType": "uint256",
          "name": "_contestId",
          "type": "uint256"
        },
        {
          "internalType": "uint256[8]",
          "name": "_semaphoreProof",
          "type": "uint256[8]"
        },
        {
          "internalType": "uint256",
          "name": "_score",
          "type": "uint256"
        },
        {
          "internalType": "uint256",
          "name": "_teamHash",
          "type": "uint256"
        },
        {
          "internalType": "uint256[60]",
          "name": "_playersScorecard",
          "type": "uint256[60]"
        },
        {
          "internalType": "uint256[8]",
          "name": "_teamAndScoreProof",
          "type": "uint256[8]"
        }
      ],
      "name": "submitTeamScore",
      "outputs": [],
      "stateMutability": "nonpayable",
      "type": "function"
    },
    {
      "inputs": [],
      "name": "treeDepth",
      "outputs": [
        {
          "internalType": "uint8",
          "name": "",
          "type": "uint8"
        }
      ],
      "stateMutability": "view",
      "type": "function"
    },
    {
      "inputs": [
        {
          "internalType": "bytes32",
          "name": "_teamIdentifier",
          "type": "bytes32"
        },
        {
          "internalType": "bytes32",
          "name": "_teamHash",
          "type": "bytes32"
        },
        {
          "internalType": "uint256",
          "name": "_initialNullifierHash",
          "type": "uint256"
        },
        {
          "internalType": "uint256",
          "name": "_newNullifierHash",
          "type": "uint256"
        },
        {
          "internalType": "uint256",
          "name": "_contestId",
          "type": "uint256"
        },
        {
          "internalType": "uint256[8]",
          "name": "_proof",
          "type": "uint256[8]"
        }
      ],
      "name": "updateTeam",
      "outputs": [],
      "stateMutability": "nonpayable",
      "type": "function"
    }
  ],
  "bytecode": "0x60806040523480156200001157600080fd5b5060405162002cd738038062002cd7833981810160405281019062000037919062000122565b82600960006101000a81548160ff021916908360ff16021790555081600960016101000a81548173ffffffffffffffffffffffffffffffffffffffff021916908373ffffffffffffffffffffffffffffffffffffffff16021790555080600a60006101000a81548173ffffffffffffffffffffffffffffffffffffffff021916908373ffffffffffffffffffffffffffffffffffffffff1602179055505050506200022f565b600081519050620000ee81620001e1565b92915050565b6000815190506200010581620001fb565b92915050565b6000815190506200011c8162000215565b92915050565b6000806000606084860312156200013857600080fd5b600062000148868287016200010b565b93505060206200015b86828701620000f4565b92505060406200016e86828701620000dd565b9150509250925092565b60006200018582620001b4565b9050919050565b6000620001998262000178565b9050919050565b6000620001ad8262000178565b9050919050565b600073ffffffffffffffffffffffffffffffffffffffff82169050919050565b600060ff82169050919050565b620001ec816200018c565b8114620001f857600080fd5b50565b6200020681620001a0565b81146200021257600080fd5b50565b6200022081620001d4565b81146200022c57600080fd5b50565b612a98806200023f6000396000f3fe608060405234801561001057600080fd5b50600436106100f55760003560e01c80636fd6d846116100975780639b24b3b0116100665780639b24b3b01461029b578063a402663e146102cb578063b9c78c2b146102e7578063bcd4cfda14610317576100f5565b80636fd6d846146101ea57806375e618c914610208578063904b9f721461023857806399c6bfe91461026b576100f5565b80633b7c8d53116100d35780633b7c8d531461015057806340dd6a9f14610180578063585e58bb1461019e57806365ad434d146101ce576100f5565b806316a56c41146100fa5780631783efc3146101185780633ac91aef14610134575b600080fd5b610102610333565b60405161010f91906123be565b60405180910390f35b610132600480360381019061012d9190611b37565b610346565b005b61014e60048036038101906101499190611a85565b61045b565b005b61016a60048036038101906101659190611b0e565b6105d3565b6040516101779190612335565b60405180910390f35b610188610606565b604051610195919061211f565b60405180910390f35b6101b860048036038101906101b39190611b37565b61062c565b6040516101c59190612335565b60405180910390f35b6101e860048036038101906101e391906118ba565b61065b565b005b6101f261080e565b6040516101ff919061213a565b60405180910390f35b610222600480360381019061021d9190611b0e565b610834565b60405161022f91906123be565b60405180910390f35b610252600480360381019061024d9190611b0e565b610861565b6040516102629493929190612379565b60405180910390f35b61028560048036038101906102809190611b0e565b6108d2565b6040516102929190612335565b60405180910390f35b6102b560048036038101906102b09190611b0e565b6108ef565b6040516102c29190612335565b60405180910390f35b6102e560048036038101906102e091906119bc565b61090f565b005b61030160048036038101906102fc9190611b0e565b610f77565b60405161030e9190612335565b60405180910390f35b610331600480360381019061032c9190611932565b610f97565b005b600960009054906101000a900460ff1681565b6002600083815260200190815260200160002060030154421061039e576040517f08c379a000000000000000000000000000000000000000000000000000000000815260040161039590612275565b60405180910390fd5b60066000838152602001908152602001600020600082815260200190815260200160002060009054906101000a900460ff1615610410576040517f08c379a0000000000000000000000000000000000000000000000000000000008152600401610407906121d5565b60405180910390fd5b61041a828261112d565b600160066000848152602001908152602001600020600083815260200190815260200160002060006101000a81548160ff0219169083151502179055505050565b83421061049d576040517f08c379a000000000000000000000000000000000000000000000000000000000815260040161049490612295565b60405180910390fd5b60006104a887611245565b90506104c581600960009054906101000a900460ff16600061127c565b60006002600083815260200190815260200160002090508181600001819055508681600101819055508581600301819055508481600201819055508381600401819055506008600088815260200190815260200160002082908060018154018082558091505060019003906000526020600020016000909190919091505561054d828461112d565b600160066000848152602001908152602001600020600085815260200190815260200160002060006101000a81548160ff02191690831515021790555086827f84eba9bda70a4af06c7d9da5968df1be66d8dba59f2cb6a5f7bbc1cf04071e918a878a8a6040516105c194939291906120da565b60405180910390a35050505050505050565b60006004600083815260200190815260200160002060009054906101000a900463ffffffff1663ffffffff169050919050565b600a60009054906101000a900473ffffffffffffffffffffffffffffffffffffffff1681565b600060056000848152602001908152602001600020600083815260200190815260200160002054905092915050565b600260008381526020019081526020016000206003015442106106b3576040517f08c379a00000000000000000000000000000000000000000000000000000000081526004016106aa906121b5565b60405180910390fd5b60006004600085815260200190815260200160002060009054906101000a900463ffffffff1663ffffffff161461071f576040517f08c379a000000000000000000000000000000000000000000000000000000000815260040161071690612235565b60405180910390fd5b60006001600084815260200190815260200160002060010154905061076a8682868686600960019054906101000a900473ffffffffffffffffffffffffffffffffffffffff166113ea565b6107748486611743565b61077d8461175f565b60016004600086815260200190815260200160002060008282829054906101000a900463ffffffff166107b09190612528565b92506101000a81548163ffffffff021916908363ffffffff160217905550827fe7debf6391b9ab30850b4d579d40b04fb9172bf845efd80ab69e37c97dbcb516876040516107fe91906120bf565b60405180910390a2505050505050565b600960019054906101000a900473ffffffffffffffffffffffffffffffffffffffff1681565b60006001600083815260200190815260200160002060000160009054906101000a900460ff169050919050565b600080600080600260008681526020019081526020016000206001015460026000878152602001908152602001600020600301546002600088815260200190815260200160002060040154600260008981526020019081526020016000206002015493509350935093509193509193565b600060036000838152602001908152602001600020549050919050565b600060016000838152602001908152602001600020600101549050919050565b6000600460008a815260200190815260200160002060009054906101000a900463ffffffff1663ffffffff161161097b576040517f08c379a0000000000000000000000000000000000000000000000000000000008152600401610972906121f5565b60405180910390fd5b6000600160008881526020019081526020016000206001015490506000600460008b815260200190815260200160002060009054906101000a900463ffffffff16905060006109cb89838d61178d565b90506109fd8c848c848c600960019054906101000a900473ffffffffffffffffffffffffffffffffffffffff166113ea565b6000610a08876117ca565b905080600760008e81526020019081526020016000205414610a5f576040517f08c379a0000000000000000000000000000000000000000000000000000000008152600401610a5690612155565b60405180910390fd5b610a67611831565b88816000603e8110610aa2577f4e487b7100000000000000000000000000000000000000000000000000000000600052603260045260246000fd5b60200201818152505087816001603e8110610ae6577f4e487b7100000000000000000000000000000000000000000000000000000000600052603260045260246000fd5b60200201818152505060005b603c811015610b9a578781603c8110610b34577f4e487b7100000000000000000000000000000000000000000000000000000000600052603260045260246000fd5b602002013582600283610b4791906124d2565b603e8110610b7e577f4e487b7100000000000000000000000000000000000000000000000000000000600052603260045260246000fd5b6020020181815250508080610b92906125fb565b915050610af2565b50600a60009054906101000a900473ffffffffffffffffffffffffffffffffffffffff1673ffffffffffffffffffffffffffffffffffffffff1663ea59061d604051806040016040528089600060088110610c1e577f4e487b7100000000000000000000000000000000000000000000000000000000600052603260045260246000fd5b6020020135815260200189600160088110610c62577f4e487b7100000000000000000000000000000000000000000000000000000000600052603260045260246000fd5b6020020135815250604051806040016040528060405180604001604052808c600260088110610cba577f4e487b7100000000000000000000000000000000000000000000000000000000600052603260045260246000fd5b602002013581526020018c600360088110610cfe577f4e487b7100000000000000000000000000000000000000000000000000000000600052603260045260246000fd5b6020020135815250815260200160405180604001604052808c600460088110610d50577f4e487b7100000000000000000000000000000000000000000000000000000000600052603260045260246000fd5b602002013581526020018c600560088110610d94577f4e487b7100000000000000000000000000000000000000000000000000000000600052603260045260246000fd5b602002013581525081525060405180604001604052808b600660088110610de4577f4e487b7100000000000000000000000000000000000000000000000000000000600052603260045260246000fd5b602002013581526020018b600760088110610e28577f4e487b7100000000000000000000000000000000000000000000000000000000600052603260045260246000fd5b6020020135815250856040518563ffffffff1660e01b8152600401610e509493929190612078565b60006040518083038186803b158015610e6857600080fd5b505afa158015610e7c573d6000803e3d6000fd5b5050505088600560008d815260200190815260200160002060008f8152602001908152602001600020819055506001600460008f815260200190815260200160002060008282829054906101000a900463ffffffff16610edc9190612528565b92506101000a81548163ffffffff021916908363ffffffff16021790555088600360008d8152602001908152602001600020541015610f2e5788600360008d8152602001908152602001600020819055505b878b7f8f3ba46937c6a2286944616f89478856a5d6a718ff6de89a27fe0fed5d6e5c448b604051610f5f9190612335565b60405180910390a35050505050505050505050505050565b600060016000838152602001908152602001600020600201549050919050565b60006004600086815260200190815260200160002060009054906101000a900463ffffffff1663ffffffff161415611004576040517f08c379a0000000000000000000000000000000000000000000000000000000008152600401610ffb90612255565b60405180910390fd5b60006001600084815260200190815260200160002060010154905060006004600087815260200190815260200160002060009054906101000a900463ffffffff169050600061105485838961178d565b90506110868984888488600960019054906101000a900473ffffffffffffffffffffffffffffffffffffffff166113ea565b6110908789611743565b6110998661175f565b60016004600089815260200190815260200160002060008282829054906101000a900463ffffffff166110cc9190612528565b92506101000a81548163ffffffff021916908363ffffffff160217905550847fe7debf6391b9ab30850b4d579d40b04fb9172bf845efd80ab69e37c97dbcb5168a60405161111a91906120bf565b60405180910390a2505050505050505050565b600061113883610834565b60ff16141561117c576040517f08c379a000000000000000000000000000000000000000000000000000000000815260040161117390612215565b60405180910390fd5b6001600083815260200190815260200160002073__$4c0484323457fe1a856f46a4759b553fe4$__63168703fa9091836040518363ffffffff1660e01b81526004016111c99291906122d5565b60006040518083038186803b1580156111e157600080fd5b505af41580156111f5573d6000803e3d6000fd5b505050506000611204836108ef565b9050827f03fd27265b7dd1f55558bedc22a58fa3b10afb1be776e614bd5a7ba7b94994068383604051611238929190612350565b60405180910390a2505050565b600060088260405160200161125a9190611fbe565b6040516020818303038152906040528051906020012060001c901c9050919050565b7f30644e72e131a029b85045b68181585d2833e84879b9709143e1f593f000000183106112de576040517f08c379a00000000000000000000000000000000000000000000000000000000081526004016112d5906122b5565b60405180910390fd5b60006112e984610834565b60ff161461132c576040517f08c379a000000000000000000000000000000000000000000000000000000000815260040161132390612195565b60405180910390fd5b6001600084815260200190815260200160002073__$4c0484323457fe1a856f46a4759b553fe4$__63b4bdd117909184846040518463ffffffff1660e01b815260040161137b939291906122fe565b60006040518083038186803b15801561139357600080fd5b505af41580156113a7573d6000803e3d6000fd5b50505050827fc3082aa494e9088c2c9f0fb62a0b6bd46e6699acb94cfba35be29b95a93f68c883836040516113dd9291906123d9565b60405180910390a2505050565b60008085815260200190815260200160002060009054906101000a900460ff161561144a576040517f08c379a000000000000000000000000000000000000000000000000000000000815260040161144190612175565b60405180910390fd5b6000611455876117fa565b90508173ffffffffffffffffffffffffffffffffffffffff16635fe8c13b6040518060400160405280866000600881106114b8577f4e487b7100000000000000000000000000000000000000000000000000000000600052603260045260246000fd5b60200201358152602001866001600881106114fc577f4e487b7100000000000000000000000000000000000000000000000000000000600052603260045260246000fd5b60200201358152506040518060400160405280604051806040016040528089600260088110611554577f4e487b7100000000000000000000000000000000000000000000000000000000600052603260045260246000fd5b6020020135815260200189600360088110611598577f4e487b7100000000000000000000000000000000000000000000000000000000600052603260045260246000fd5b602002013581525081526020016040518060400160405280896004600881106115ea577f4e487b7100000000000000000000000000000000000000000000000000000000600052603260045260246000fd5b602002013581526020018960056008811061162e577f4e487b7100000000000000000000000000000000000000000000000000000000600052603260045260246000fd5b602002013581525081525060405180604001604052808860066008811061167e577f4e487b7100000000000000000000000000000000000000000000000000000000600052603260045260246000fd5b60200201358152602001886007600881106116c2577f4e487b7100000000000000000000000000000000000000000000000000000000600052603260045260246000fd5b602002013581525060405180608001604052808c81526020018b81526020018781526020018a8152506040518563ffffffff1660e01b815260040161170a9493929190612031565b60006040518083038186803b15801561172257600080fd5b505afa158015611736573d6000803e3d6000fd5b5050505050505050505050565b8060076000848152602001908152602001600020819055505050565b600160008083815260200190815260200160002060006101000a81548160ff02191690831515021790555050565b600060088484846040516020016117a693929190611ff4565b6040516020818303038152906040528051906020012060001c901c90509392505050565b6000816040516020016117dd9190611fd9565b604051602081830303815290604052805190602001209050919050565b600060088260405160200161180f9190611fbe565b6040516020818303038152906040528051906020012060001c901c9050919050565b604051806107c00160405280603e90602082028036833780820191505090505090565b6000819050826020603c028201111561186c57600080fd5b92915050565b60008190508260206008028201111561188a57600080fd5b92915050565b60008135905061189f81612a34565b92915050565b6000813590506118b481612a4b565b92915050565b600080600080600061018086880312156118d357600080fd5b60006118e188828901611890565b95505060206118f288828901611890565b9450506040611903888289016118a5565b9350506060611914888289016118a5565b925050608061192588828901611872565b9150509295509295909350565b6000806000806000806101a0878903121561194c57600080fd5b600061195a89828a01611890565b965050602061196b89828a01611890565b955050604061197c89828a016118a5565b945050606061198d89828a016118a5565b935050608061199e89828a016118a5565b92505060a06119af89828a01611872565b9150509295509295509295565b6000806000806000806000806000610a408a8c0312156119db57600080fd5b60006119e98c828d01611890565b99505060206119fa8c828d016118a5565b9850506040611a0b8c828d016118a5565b9750506060611a1c8c828d016118a5565b9650506080611a2d8c828d01611872565b955050610180611a3f8c828d016118a5565b9450506101a0611a518c828d016118a5565b9350506101c0611a638c828d01611854565b925050610940611a758c828d01611872565b9150509295985092959850929598565b60008060008060008060c08789031215611a9e57600080fd5b6000611aac89828a01611890565b9650506020611abd89828a016118a5565b9550506040611ace89828a016118a5565b9450506060611adf89828a016118a5565b9350506080611af089828a016118a5565b92505060a0611b0189828a016118a5565b9150509295509295509295565b600060208284031215611b2057600080fd5b6000611b2e848285016118a5565b91505092915050565b60008060408385031215611b4a57600080fd5b6000611b58858286016118a5565b9250506020611b69858286016118a5565b9150509250929050565b6000611b7f8383611bfa565b60408301905092915050565b6000611b978383611f45565b60208301905092915050565b611bac8161242a565b611bb6818461248a565b9250611bc182612402565b8060005b83811015611bf2578151611bd98782611b73565b9650611be483612456565b925050600181019050611bc5565b505050505050565b611c0381612435565b611c0d8184612495565b9250611c188261240c565b8060005b83811015611c49578151611c308782611b8b565b9650611c3b83612463565b925050600181019050611c1c565b505050505050565b611c5a81612435565b611c6481846124a0565b9250611c6f8261240c565b8060005b83811015611ca0578151611c878782611b8b565b9650611c9283612463565b925050600181019050611c73565b505050505050565b611cb181612440565b611cbb81846124ab565b9250611cc682612416565b8060005b83811015611cf7578151611cde8782611b8b565b9650611ce983612470565b925050600181019050611cca565b505050505050565b611d088161244b565b611d1281846124b6565b9250611d1d82612420565b8060005b83811015611d4e578151611d358782611b8b565b9650611d408361247d565b925050600181019050611d21565b505050505050565b611d5f81612562565b82525050565b611d76611d7182612562565b612644565b82525050565b611d85816125b3565b82525050565b611d94816125d7565b82525050565b6000611da76028836124c1565b9150611db2826126a6565b604082019050919050565b6000611dca6036836124c1565b9150611dd5826126f5565b604082019050919050565b6000611ded6025836124c1565b9150611df882612744565b604082019050919050565b6000611e106037836124c1565b9150611e1b82612793565b604082019050919050565b6000611e336025836124c1565b9150611e3e826127e2565b604082019050919050565b6000611e566011836124c1565b9150611e6182612831565b602082019050919050565b6000611e796025836124c1565b9150611e848261285a565b604082019050919050565b6000611e9c6028836124c1565b9150611ea7826128a9565b604082019050919050565b6000611ebf603d836124c1565b9150611eca826128f8565b604082019050919050565b6000611ee2603f836124c1565b9150611eed82612947565b604082019050919050565b6000611f056030836124c1565b9150611f1082612996565b604082019050919050565b6000611f286036836124c1565b9150611f33826129e5565b604082019050919050565b8082525050565b611f4e8161258c565b82525050565b611f5d8161258c565b82525050565b611f6c8161258c565b82525050565b611f83611f7e8261258c565b61264e565b82525050565b611f9a611f9582612596565b612658565b82525050565b611fa9816125a6565b82525050565b611fb8816125a6565b82525050565b6000611fca8284611d65565b60208201915081905092915050565b6000611fe58284611f72565b60208201915081905092915050565b60006120008286611f72565b6020820191506120108285611f89565b6004820191506120208284611f72565b602082019150819050949350505050565b6000610180820190506120476000830187611c51565b6120546040830186611ba3565b61206160c0830185611c51565b61206f610100830184611ca8565b95945050505050565b60006108c08201905061208e6000830187611c51565b61209b6040830186611ba3565b6120a860c0830185611c51565b6120b6610100830184611cff565b95945050505050565b60006020820190506120d46000830184611d56565b92915050565b60006080820190506120ef6000830187611d56565b6120fc6020830186611f54565b6121096040830185611f54565b6121166060830184611f54565b95945050505050565b60006020820190506121346000830184611d7c565b92915050565b600060208201905061214f6000830184611d8b565b92915050565b6000602082019050818103600083015261216e81611d9a565b9050919050565b6000602082019050818103600083015261218e81611dbd565b9050919050565b600060208201905081810360008301526121ae81611de0565b9050919050565b600060208201905081810360008301526121ce81611e03565b9050919050565b600060208201905081810360008301526121ee81611e26565b9050919050565b6000602082019050818103600083015261220e81611e49565b9050919050565b6000602082019050818103600083015261222e81611e6c565b9050919050565b6000602082019050818103600083015261224e81611e8f565b9050919050565b6000602082019050818103600083015261226e81611eb2565b9050919050565b6000602082019050818103600083015261228e81611ed5565b9050919050565b600060208201905081810360008301526122ae81611ef8565b9050919050565b600060208201905081810360008301526122ce81611f1b565b9050919050565b60006040820190506122ea6000830185611f3e565b6122f76020830184611f63565b9392505050565b60006060820190506123136000830186611f3e565b6123206020830185611faf565b61232d6040830184611f63565b949350505050565b600060208201905061234a6000830184611f54565b92915050565b60006040820190506123656000830185611f54565b6123726020830184611f54565b9392505050565b600060808201905061238e6000830187611f54565b61239b6020830186611f54565b6123a86040830185611f54565b6123b56060830184611f54565b95945050505050565b60006020820190506123d36000830184611fa0565b92915050565b60006040820190506123ee6000830185611fa0565b6123fb6020830184611f54565b9392505050565b6000819050919050565b6000819050919050565b6000819050919050565b6000819050919050565b600060029050919050565b600060029050919050565b600060049050919050565b6000603e9050919050565b6000602082019050919050565b6000602082019050919050565b6000602082019050919050565b6000602082019050919050565b600081905092915050565b600081905092915050565b600081905092915050565b600081905092915050565b600081905092915050565b600082825260208201905092915050565b60006124dd8261258c565b91506124e88361258c565b9250827fffffffffffffffffffffffffffffffffffffffffffffffffffffffffffffffff0382111561251d5761251c61266a565b5b828201905092915050565b600061253382612596565b915061253e83612596565b92508263ffffffff038211156125575761255661266a565b5b828201905092915050565b6000819050919050565b600073ffffffffffffffffffffffffffffffffffffffff82169050919050565b6000819050919050565b600063ffffffff82169050919050565b600060ff82169050919050565b60006125be826125c5565b9050919050565b60006125d08261256c565b9050919050565b60006125e2826125e9565b9050919050565b60006125f48261256c565b9050919050565b60006126068261258c565b91507fffffffffffffffffffffffffffffffffffffffffffffffffffffffffffffffff8214156126395761263861266a565b5b600182019050919050565b6000819050919050565b6000819050919050565b600061266382612699565b9050919050565b7f4e487b7100000000000000000000000000000000000000000000000000000000600052601160045260246000fd5b60008160e01b9050919050565b7f5375626d6974207465616d48617368206f6620796f7572206c6173742073617660008201527f6564207465616d2e000000000000000000000000000000000000000000000000602082015250565b7f53656d6170686f7265436f72653a20796f752063616e6e6f742075736520746860008201527f652073616d65206e756c6c696669657220747769636500000000000000000000602082015250565b7f53656d6170686f726547726f7570733a2067726f757020616c7265616479206560008201527f7869737473000000000000000000000000000000000000000000000000000000602082015250565b7f436f6e7465737420636c6f73656420666f72205465616d207375626d6973737360008201527f696f6e20692e6520656e642074696d6520706173736564000000000000000000602082015250565b7f55736572206861766520616c7265616479206a6f696e65642074686520636f6e60008201527f746573742e000000000000000000000000000000000000000000000000000000602082015250565b7f4e6f207465616d207375626d6974746564000000000000000000000000000000600082015250565b7f53656d6170686f726547726f7570733a2067726f757020646f6573206e6f742060008201527f6578697374000000000000000000000000000000000000000000000000000000602082015250565b7f416c726561647920706f737465642061207465616d202c20747279207570646160008201527f74696e672069742e000000000000000000000000000000000000000000000000602082015250565b7f5465616d20646f6e27742065786973742c2043616e277420757064617465207460008201527f65616d2e20506c6561736520666972737420637265617465207465616d000000602082015250565b7f436f6e7465737420636c6f73656420666f72206e6577206d656d626572732c2060008201527f5465616d207375626d697373696f6e20656e642074696d652070617373656400602082015250565b7f5465616d205375626d697373696f6e20656e642074696d652073686f756c642060008201527f626520696e207468652066757475726500000000000000000000000000000000602082015250565b7f53656d6170686f726547726f7570733a2067726f7570206964206d757374206260008201527f65203c20534e41524b5f5343414c41525f4649454c4400000000000000000000602082015250565b612a3d81612562565b8114612a4857600080fd5b50565b612a548161258c565b8114612a5f57600080fd5b5056fea264697066735822122087ef99b6bd46601ad71a9b7e5ea4a2c2515e4c480b346095ccb30c88d55324ff64736f6c63430008040033",
  "linkReferences": {
    "@zk-kit/incremental-merkle-tree.sol/contracts/IncrementalBinaryTree.sol": {
      "IncrementalBinaryTree": [
        {
          "length": 20,
          "start": 5072
        },
        {
          "length": 20,
          "start": 5504
        }
      ]
    }
  },
  "deployedLinkReferences": {
    "@zk-kit/incremental-merkle-tree.sol/contracts/IncrementalBinaryTree.sol": {
      "IncrementalBinaryTree": [
        {
          "length": 20,
          "start": 4497
        },
        {
          "length": 20,
          "start": 4929
        }
      ]
    }
  }
}