{
  "_format": "hh-sol-artifact-1",
  "contractName": "TFSToken",
  "sourceName": "contracts/TFSToken.sol",
  "abi": [
    {
      "inputs": [
        {
          "internalType": "uint256",
          "name": "initialSupply",
          "type": "uint256"
        }
      ],
      "stateMutability": "nonpayable",
      "type": "constructor"
    },
    {
      "anonymous": false,
      "inputs": [
        {
          "indexed": true,
          "internalType": "address",
          "name": "owner",
          "type": "address"
        },
        {
          "indexed": true,
          "internalType": "address",
          "name": "spender",
          "type": "address"
        },
        {
          "indexed": false,
          "internalType": "uint256",
          "name": "value",
          "type": "uint256"
        }
      ],
      "name": "Approval",
      "type": "event"
    },
    {
      "anonymous": false,
      "inputs": [
        {
          "indexed": true,
          "internalType": "address",
          "name": "from",
          "type": "address"
        },
        {
          "indexed": true,
          "internalType": "address",
          "name": "to",
          "type": "address"
        },
        {
          "indexed": false,
          "internalType": "uint256",
          "name": "value",
          "type": "uint256"
        }
      ],
      "name": "Transfer",
      "type": "event"
    },
    {
      "inputs": [
        {
          "internalType": "address",
          "name": "owner",
          "type": "address"
        },
        {
          "internalType": "address",
          "name": "spender",
          "type": "address"
        }
      ],
      "name": "allowance",
      "outputs": [
        {
          "internalType": "uint256",
          "name": "",
          "type": "uint256"
        }
      ],
      "stateMutability": "view",
      "type": "function"
    },
    {
      "inputs": [
        {
          "internalType": "address",
          "name": "spender",
          "type": "address"
        },
        {
          "internalType": "uint256",
          "name": "amount",
          "type": "uint256"
        }
      ],
      "name": "approve",
      "outputs": [
        {
          "internalType": "bool",
          "name": "",
          "type": "bool"
        }
      ],
      "stateMutability": "nonpayable",
      "type": "function"
    },
    {
      "inputs": [
        {
          "internalType": "address",
          "name": "account",
          "type": "address"
        }
      ],
      "name": "balanceOf",
      "outputs": [
        {
          "internalType": "uint256",
          "name": "",
          "type": "uint256"
        }
      ],
      "stateMutability": "view",
      "type": "function"
    },
    {
      "inputs": [],
      "name": "decimals",
      "outputs": [
        {
          "internalType": "uint8",
          "name": "",
          "type": "uint8"
        }
      ],
      "stateMutability": "view",
      "type": "function"
    },
    {
      "inputs": [
        {
          "internalType": "address",
          "name": "spender",
          "type": "address"
        },
        {
          "internalType": "uint256",
          "name": "subtractedValue",
          "type": "uint256"
        }
      ],
      "name": "decreaseAllowance",
      "outputs": [
        {
          "internalType": "bool",
          "name": "",
          "type": "bool"
        }
      ],
      "stateMutability": "nonpayable",
      "type": "function"
    },
    {
      "inputs": [
        {
          "internalType": "address",
          "name": "spender",
          "type": "address"
        },
        {
          "internalType": "uint256",
          "name": "addedValue",
          "type": "uint256"
        }
      ],
      "name": "increaseAllowance",
      "outputs": [
        {
          "internalType": "bool",
          "name": "",
          "type": "bool"
        }
      ],
      "stateMutability": "nonpayable",
      "type": "function"
    },
    {
      "inputs": [],
      "name": "mint10Token",
      "outputs": [],
      "stateMutability": "nonpayable",
      "type": "function"
    },
    {
      "inputs": [],
      "name": "name",
      "outputs": [
        {
          "internalType": "string",
          "name": "",
          "type": "string"
        }
      ],
      "stateMutability": "view",
      "type": "function"
    },
    {
      "inputs": [],
      "name": "symbol",
      "outputs": [
        {
          "internalType": "string",
          "name": "",
          "type": "string"
        }
      ],
      "stateMutability": "view",
      "type": "function"
    },
    {
      "inputs": [],
      "name": "totalSupply",
      "outputs": [
        {
          "internalType": "uint256",
          "name": "",
          "type": "uint256"
        }
      ],
      "stateMutability": "view",
      "type": "function"
    },
    {
      "inputs": [
        {
          "internalType": "address",
          "name": "to",
          "type": "address"
        },
        {
          "internalType": "uint256",
          "name": "amount",
          "type": "uint256"
        }
      ],
      "name": "transfer",
      "outputs": [
        {
          "internalType": "bool",
          "name": "",
          "type": "bool"
        }
      ],
      "stateMutability": "nonpayable",
      "type": "function"
    },
    {
      "inputs": [
        {
          "internalType": "address",
          "name": "from",
          "type": "address"
        },
        {
          "internalType": "address",
          "name": "to",
          "type": "address"
        },
        {
          "internalType": "uint256",
          "name": "amount",
          "type": "uint256"
        }
      ],
      "name": "transferFrom",
      "outputs": [
        {
          "internalType": "bool",
          "name": "",
          "type": "bool"
        }
      ],
      "stateMutability": "nonpayable",
      "type": "function"
    }
  ],
  "bytecode": "0x60806040523480156200001157600080fd5b5060405162001b1d38038062001b1d83398181016040528101906200003791906200033a565b6040518060400160405280601381526020017f547275652046616e746173792053706f727473000000000000000000000000008152506040518060400160405280600381526020017f54465300000000000000000000000000000000000000000000000000000000008152508160039080519060200190620000bb92919062000273565b508060049080519060200190620000d492919062000273565b505050620000e93382620000f060201b60201c565b506200052c565b600073ffffffffffffffffffffffffffffffffffffffff168273ffffffffffffffffffffffffffffffffffffffff16141562000163576040517f08c379a00000000000000000000000000000000000000000000000000000000081526004016200015a906200039e565b60405180910390fd5b62000177600083836200026960201b60201c565b80600260008282546200018b9190620003ee565b92505081905550806000808473ffffffffffffffffffffffffffffffffffffffff1673ffffffffffffffffffffffffffffffffffffffff1681526020019081526020016000206000828254620001e29190620003ee565b925050819055508173ffffffffffffffffffffffffffffffffffffffff16600073ffffffffffffffffffffffffffffffffffffffff167fddf252ad1be2c89b69c2b068fc378daa952ba7f163c4a11628f55a4df523b3ef83604051620002499190620003c0565b60405180910390a362000265600083836200026e60201b60201c565b5050565b505050565b505050565b828054620002819062000455565b90600052602060002090601f016020900481019282620002a55760008555620002f1565b82601f10620002c057805160ff1916838001178555620002f1565b82800160010185558215620002f1579182015b82811115620002f0578251825591602001919060010190620002d3565b5b50905062000300919062000304565b5090565b5b808211156200031f57600081600090555060010162000305565b5090565b600081519050620003348162000512565b92915050565b6000602082840312156200034d57600080fd5b60006200035d8482850162000323565b91505092915050565b600062000375601f83620003dd565b91506200038282620004e9565b602082019050919050565b62000398816200044b565b82525050565b60006020820190508181036000830152620003b98162000366565b9050919050565b6000602082019050620003d760008301846200038d565b92915050565b600082825260208201905092915050565b6000620003fb826200044b565b915062000408836200044b565b9250827fffffffffffffffffffffffffffffffffffffffffffffffffffffffffffffffff0382111562000440576200043f6200048b565b5b828201905092915050565b6000819050919050565b600060028204905060018216806200046e57607f821691505b60208210811415620004855762000484620004ba565b5b50919050565b7f4e487b7100000000000000000000000000000000000000000000000000000000600052601160045260246000fd5b7f4e487b7100000000000000000000000000000000000000000000000000000000600052602260045260246000fd5b7f45524332303a206d696e7420746f20746865207a65726f206164647265737300600082015250565b6200051d816200044b565b81146200052957600080fd5b50565b6115e1806200053c6000396000f3fe608060405234801561001057600080fd5b50600436106100b45760003560e01c806370a082311161007157806370a08231146101a357806395d89b41146101d3578063a457c2d7146101f1578063a812c7f914610221578063a9059cbb1461022b578063dd62ed3e1461025b576100b4565b806306fdde03146100b9578063095ea7b3146100d757806318160ddd1461010757806323b872dd14610125578063313ce567146101555780633950935114610173575b600080fd5b6100c161028b565b6040516100ce9190610fbb565b60405180910390f35b6100f160048036038101906100ec9190610dc3565b61031d565b6040516100fe9190610fa0565b60405180910390f35b61010f610340565b60405161011c91906110fd565b60405180910390f35b61013f600480360381019061013a9190610d74565b61034a565b60405161014c9190610fa0565b60405180910390f35b61015d610379565b60405161016a9190611118565b60405180910390f35b61018d60048036038101906101889190610dc3565b610382565b60405161019a9190610fa0565b60405180910390f35b6101bd60048036038101906101b89190610d0f565b6103b9565b6040516101ca91906110fd565b60405180910390f35b6101db610401565b6040516101e89190610fbb565b60405180910390f35b61020b60048036038101906102069190610dc3565b610493565b6040516102189190610fa0565b60405180910390f35b61022961050a565b005b61024560048036038101906102409190610dc3565b6105f1565b6040516102529190610fa0565b60405180910390f35b61027560048036038101906102709190610d38565b610614565b60405161028291906110fd565b60405180910390f35b60606003805461029a90611261565b80601f01602080910402602001604051908101604052809291908181526020018280546102c690611261565b80156103135780601f106102e857610100808354040283529160200191610313565b820191906000526020600020905b8154815290600101906020018083116102f657829003601f168201915b5050505050905090565b60008061032861069b565b90506103358185856106a3565b600191505092915050565b6000600254905090565b60008061035561069b565b905061036285828561086e565b61036d8585856108fa565b60019150509392505050565b60006012905090565b60008061038d61069b565b90506103ae81858561039f8589610614565b6103a9919061114f565b6106a3565b600191505092915050565b60008060008373ffffffffffffffffffffffffffffffffffffffff1673ffffffffffffffffffffffffffffffffffffffff168152602001908152602001600020549050919050565b60606004805461041090611261565b80601f016020809104026020016040519081016040528092919081815260200182805461043c90611261565b80156104895780601f1061045e57610100808354040283529160200191610489565b820191906000526020600020905b81548152906001019060200180831161046c57829003601f168201915b5050505050905090565b60008061049e61069b565b905060006104ac8286610614565b9050838110156104f1576040517f08c379a00000000000000000000000000000000000000000000000000000000081526004016104e8906110bd565b60405180910390fd5b6104fe82868684036106a3565b60019250505092915050565b62015180600560003373ffffffffffffffffffffffffffffffffffffffff1673ffffffffffffffffffffffffffffffffffffffff168152602001908152602001600020544261055991906111a5565b11610599576040517f08c379a00000000000000000000000000000000000000000000000000000000081526004016105909061105d565b60405180910390fd5b42600560003373ffffffffffffffffffffffffffffffffffffffff1673ffffffffffffffffffffffffffffffffffffffff168152602001908152602001600020819055506105ef33678ac7230489e80000610b7b565b565b6000806105fc61069b565b90506106098185856108fa565b600191505092915050565b6000600160008473ffffffffffffffffffffffffffffffffffffffff1673ffffffffffffffffffffffffffffffffffffffff16815260200190815260200160002060008373ffffffffffffffffffffffffffffffffffffffff1673ffffffffffffffffffffffffffffffffffffffff16815260200190815260200160002054905092915050565b600033905090565b600073ffffffffffffffffffffffffffffffffffffffff168373ffffffffffffffffffffffffffffffffffffffff161415610713576040517f08c379a000000000000000000000000000000000000000000000000000000000815260040161070a9061109d565b60405180910390fd5b600073ffffffffffffffffffffffffffffffffffffffff168273ffffffffffffffffffffffffffffffffffffffff161415610783576040517f08c379a000000000000000000000000000000000000000000000000000000000815260040161077a90610ffd565b60405180910390fd5b80600160008573ffffffffffffffffffffffffffffffffffffffff1673ffffffffffffffffffffffffffffffffffffffff16815260200190815260200160002060008473ffffffffffffffffffffffffffffffffffffffff1673ffffffffffffffffffffffffffffffffffffffff168152602001908152602001600020819055508173ffffffffffffffffffffffffffffffffffffffff168373ffffffffffffffffffffffffffffffffffffffff167f8c5be1e5ebec7d5bd14f71427d1e84f3dd0314c0f7b2291e5b200ac8c7c3b9258360405161086191906110fd565b60405180910390a3505050565b600061087a8484610614565b90507fffffffffffffffffffffffffffffffffffffffffffffffffffffffffffffffff81146108f457818110156108e6576040517f08c379a00000000000000000000000000000000000000000000000000000000081526004016108dd9061101d565b60405180910390fd5b6108f384848484036106a3565b5b50505050565b600073ffffffffffffffffffffffffffffffffffffffff168373ffffffffffffffffffffffffffffffffffffffff16141561096a576040517f08c379a00000000000000000000000000000000000000000000000000000000081526004016109619061107d565b60405180910390fd5b600073ffffffffffffffffffffffffffffffffffffffff168273ffffffffffffffffffffffffffffffffffffffff1614156109da576040517f08c379a00000000000000000000000000000000000000000000000000000000081526004016109d190610fdd565b60405180910390fd5b6109e5838383610cdb565b60008060008573ffffffffffffffffffffffffffffffffffffffff1673ffffffffffffffffffffffffffffffffffffffff16815260200190815260200160002054905081811015610a6b576040517f08c379a0000000000000000000000000000000000000000000000000000000008152600401610a629061103d565b60405180910390fd5b8181036000808673ffffffffffffffffffffffffffffffffffffffff1673ffffffffffffffffffffffffffffffffffffffff16815260200190815260200160002081905550816000808573ffffffffffffffffffffffffffffffffffffffff1673ffffffffffffffffffffffffffffffffffffffff1681526020019081526020016000206000828254610afe919061114f565b925050819055508273ffffffffffffffffffffffffffffffffffffffff168473ffffffffffffffffffffffffffffffffffffffff167fddf252ad1be2c89b69c2b068fc378daa952ba7f163c4a11628f55a4df523b3ef84604051610b6291906110fd565b60405180910390a3610b75848484610ce0565b50505050565b600073ffffffffffffffffffffffffffffffffffffffff168273ffffffffffffffffffffffffffffffffffffffff161415610beb576040517f08c379a0000000000000000000000000000000000000000000000000000000008152600401610be2906110dd565b60405180910390fd5b610bf760008383610cdb565b8060026000828254610c09919061114f565b92505081905550806000808473ffffffffffffffffffffffffffffffffffffffff1673ffffffffffffffffffffffffffffffffffffffff1681526020019081526020016000206000828254610c5e919061114f565b925050819055508173ffffffffffffffffffffffffffffffffffffffff16600073ffffffffffffffffffffffffffffffffffffffff167fddf252ad1be2c89b69c2b068fc378daa952ba7f163c4a11628f55a4df523b3ef83604051610cc391906110fd565b60405180910390a3610cd760008383610ce0565b5050565b505050565b505050565b600081359050610cf48161157d565b92915050565b600081359050610d0981611594565b92915050565b600060208284031215610d2157600080fd5b6000610d2f84828501610ce5565b91505092915050565b60008060408385031215610d4b57600080fd5b6000610d5985828601610ce5565b9250506020610d6a85828601610ce5565b9150509250929050565b600080600060608486031215610d8957600080fd5b6000610d9786828701610ce5565b9350506020610da886828701610ce5565b9250506040610db986828701610cfa565b9150509250925092565b60008060408385031215610dd657600080fd5b6000610de485828601610ce5565b9250506020610df585828601610cfa565b9150509250929050565b610e08816111eb565b82525050565b6000610e1982611133565b610e23818561113e565b9350610e3381856020860161122e565b610e3c816112f1565b840191505092915050565b6000610e5460238361113e565b9150610e5f82611302565b604082019050919050565b6000610e7760228361113e565b9150610e8282611351565b604082019050919050565b6000610e9a601d8361113e565b9150610ea5826113a0565b602082019050919050565b6000610ebd60268361113e565b9150610ec8826113c9565b604082019050919050565b6000610ee060258361113e565b9150610eeb82611418565b604082019050919050565b6000610f0360258361113e565b9150610f0e82611467565b604082019050919050565b6000610f2660248361113e565b9150610f31826114b6565b604082019050919050565b6000610f4960258361113e565b9150610f5482611505565b604082019050919050565b6000610f6c601f8361113e565b9150610f7782611554565b602082019050919050565b610f8b81611217565b82525050565b610f9a81611221565b82525050565b6000602082019050610fb56000830184610dff565b92915050565b60006020820190508181036000830152610fd58184610e0e565b905092915050565b60006020820190508181036000830152610ff681610e47565b9050919050565b6000602082019050818103600083015261101681610e6a565b9050919050565b6000602082019050818103600083015261103681610e8d565b9050919050565b6000602082019050818103600083015261105681610eb0565b9050919050565b6000602082019050818103600083015261107681610ed3565b9050919050565b6000602082019050818103600083015261109681610ef6565b9050919050565b600060208201905081810360008301526110b681610f19565b9050919050565b600060208201905081810360008301526110d681610f3c565b9050919050565b600060208201905081810360008301526110f681610f5f565b9050919050565b60006020820190506111126000830184610f82565b92915050565b600060208201905061112d6000830184610f91565b92915050565b600081519050919050565b600082825260208201905092915050565b600061115a82611217565b915061116583611217565b9250827fffffffffffffffffffffffffffffffffffffffffffffffffffffffffffffffff0382111561119a57611199611293565b5b828201905092915050565b60006111b082611217565b91506111bb83611217565b9250828210156111ce576111cd611293565b5b828203905092915050565b60006111e4826111f7565b9050919050565b60008115159050919050565b600073ffffffffffffffffffffffffffffffffffffffff82169050919050565b6000819050919050565b600060ff82169050919050565b60005b8381101561124c578082015181840152602081019050611231565b8381111561125b576000848401525b50505050565b6000600282049050600182168061127957607f821691505b6020821081141561128d5761128c6112c2565b5b50919050565b7f4e487b7100000000000000000000000000000000000000000000000000000000600052601160045260246000fd5b7f4e487b7100000000000000000000000000000000000000000000000000000000600052602260045260246000fd5b6000601f19601f8301169050919050565b7f45524332303a207472616e7366657220746f20746865207a65726f206164647260008201527f6573730000000000000000000000000000000000000000000000000000000000602082015250565b7f45524332303a20617070726f766520746f20746865207a65726f20616464726560008201527f7373000000000000000000000000000000000000000000000000000000000000602082015250565b7f45524332303a20696e73756666696369656e7420616c6c6f77616e6365000000600082015250565b7f45524332303a207472616e7366657220616d6f756e742065786365656473206260008201527f616c616e63650000000000000000000000000000000000000000000000000000602082015250565b7f43616e206e6f74206d696e74206d6f726520746f6b656e2077697468696e672060008201527f3234204872000000000000000000000000000000000000000000000000000000602082015250565b7f45524332303a207472616e736665722066726f6d20746865207a65726f20616460008201527f6472657373000000000000000000000000000000000000000000000000000000602082015250565b7f45524332303a20617070726f76652066726f6d20746865207a65726f2061646460008201527f7265737300000000000000000000000000000000000000000000000000000000602082015250565b7f45524332303a2064656372656173656420616c6c6f77616e63652062656c6f7760008201527f207a65726f000000000000000000000000000000000000000000000000000000602082015250565b7f45524332303a206d696e7420746f20746865207a65726f206164647265737300600082015250565b611586816111d9565b811461159157600080fd5b50565b61159d81611217565b81146115a857600080fd5b5056fea264697066735822122075358d14e9fa9097209c1f1f5e4c4bfec13692409e309869bfb1aaad2f75e5b964736f6c63430008040033",
  "linkReferences": {},
  "deployedLinkReferences": {}
}