{
  "_format": "hh-sol-artifact-1",
  "contractName": "TrueFantasySports_V1",
  "sourceName": "contracts/TrueFantasySports_V1.sol",
  "abi": [
    {
      "inputs": [
        {
          "internalType": "contract IScoreAndTeamVerifier",
          "name": "_scoreAndTeamVerifier",
          "type": "address"
        },
        {
          "internalType": "address",
          "name": "_tokenContractAddress",
          "type": "address"
        }
      ],
      "stateMutability": "nonpayable",
      "type": "constructor"
    },
    {
      "anonymous": false,
      "inputs": [
        {
          "indexed": true,
          "internalType": "uint256",
          "name": "contestId",
          "type": "uint256"
        },
        {
          "indexed": false,
          "internalType": "address",
          "name": "memberAddress",
          "type": "address"
        },
        {
          "indexed": false,
          "internalType": "uint256",
          "name": "amount",
          "type": "uint256"
        }
      ],
      "name": "ClaimedPrize",
      "type": "event"
    },
    {
      "anonymous": false,
      "inputs": [
        {
          "indexed": true,
          "internalType": "uint256",
          "name": "contestId",
          "type": "uint256"
        },
        {
          "indexed": false,
          "internalType": "bytes32",
          "name": "contestName",
          "type": "bytes32"
        },
        {
          "indexed": true,
          "internalType": "uint256",
          "name": "matchId",
          "type": "uint256"
        },
        {
          "indexed": false,
          "internalType": "uint256",
          "name": "entryFee",
          "type": "uint256"
        },
        {
          "indexed": false,
          "internalType": "uint256",
          "name": "teamSubmissionEndTime",
          "type": "uint256"
        },
        {
          "indexed": false,
          "internalType": "uint256",
          "name": "contestCompletionTime",
          "type": "uint256"
        }
      ],
      "name": "ContestCreated",
      "type": "event"
    },
    {
      "anonymous": false,
      "inputs": [
        {
          "indexed": true,
          "internalType": "uint256",
          "name": "contestId",
          "type": "uint256"
        },
        {
          "indexed": true,
          "internalType": "uint256",
          "name": "matchId",
          "type": "uint256"
        },
        {
          "indexed": true,
          "internalType": "address",
          "name": "memberAddress",
          "type": "address"
        }
      ],
      "name": "MemberAdded",
      "type": "event"
    },
    {
      "anonymous": false,
      "inputs": [
        {
          "indexed": true,
          "internalType": "uint256",
          "name": "contestId",
          "type": "uint256"
        },
        {
          "indexed": true,
          "internalType": "address",
          "name": "memberAddress",
          "type": "address"
        },
        {
          "indexed": false,
          "internalType": "bytes32",
          "name": "teamHash",
          "type": "bytes32"
        }
      ],
      "name": "TeamPosted",
      "type": "event"
    },
    {
      "anonymous": false,
      "inputs": [
        {
          "indexed": true,
          "internalType": "uint256",
          "name": "contestId",
          "type": "uint256"
        },
        {
          "indexed": true,
          "internalType": "uint256",
          "name": "teamHash",
          "type": "uint256"
        },
        {
          "indexed": false,
          "internalType": "uint256",
          "name": "score",
          "type": "uint256"
        }
      ],
      "name": "TeamScore",
      "type": "event"
    },
    {
      "anonymous": false,
      "inputs": [
        {
          "indexed": true,
          "internalType": "uint256",
          "name": "contestId",
          "type": "uint256"
        },
        {
          "indexed": true,
          "internalType": "address",
          "name": "memberAddress",
          "type": "address"
        },
        {
          "indexed": false,
          "internalType": "bytes32",
          "name": "teamHash",
          "type": "bytes32"
        }
      ],
      "name": "TeamUpdated",
      "type": "event"
    },
    {
      "inputs": [
        {
          "internalType": "uint256",
          "name": "_contestId",
          "type": "uint256"
        }
      ],
      "name": "addMember",
      "outputs": [],
      "stateMutability": "nonpayable",
      "type": "function"
    },
    {
      "inputs": [
        {
          "internalType": "bytes32",
          "name": "_contestName",
          "type": "bytes32"
        },
        {
          "internalType": "uint256",
          "name": "_matchId",
          "type": "uint256"
        },
        {
          "internalType": "uint256",
          "name": "_teamSubmissionEndTime",
          "type": "uint256"
        },
        {
          "internalType": "uint256",
          "name": "_contestCompletionTime",
          "type": "uint256"
        },
        {
          "internalType": "uint256",
          "name": "_entryFee",
          "type": "uint256"
        }
      ],
      "name": "createContest",
      "outputs": [],
      "stateMutability": "nonpayable",
      "type": "function"
    },
    {
      "inputs": [
        {
          "internalType": "uint256",
          "name": "contestId",
          "type": "uint256"
        }
      ],
      "name": "getContest",
      "outputs": [
        {
          "internalType": "uint256",
          "name": "matchId",
          "type": "uint256"
        },
        {
          "internalType": "uint256",
          "name": "teamSubmissionEndTime",
          "type": "uint256"
        },
        {
          "internalType": "uint256",
          "name": "entryFee",
          "type": "uint256"
        },
        {
          "internalType": "uint256",
          "name": "contestCompletionTime",
          "type": "uint256"
        }
      ],
      "stateMutability": "view",
      "type": "function"
    },
    {
      "inputs": [
        {
          "internalType": "uint256",
          "name": "_contestId",
          "type": "uint256"
        }
      ],
      "name": "getHighestScore",
      "outputs": [
        {
          "internalType": "uint256",
          "name": "",
          "type": "uint256"
        }
      ],
      "stateMutability": "view",
      "type": "function"
    },
    {
      "inputs": [
        {
          "internalType": "uint256",
          "name": "_contestId",
          "type": "uint256"
        }
      ],
      "name": "getYourScore",
      "outputs": [
        {
          "internalType": "uint256",
          "name": "",
          "type": "uint256"
        }
      ],
      "stateMutability": "view",
      "type": "function"
    },
    {
      "inputs": [
        {
          "internalType": "bytes32",
          "name": "_teamHash",
          "type": "bytes32"
        },
        {
          "internalType": "uint256",
          "name": "_contestId",
          "type": "uint256"
        }
      ],
      "name": "postTeam",
      "outputs": [],
      "stateMutability": "nonpayable",
      "type": "function"
    },
    {
      "inputs": [],
      "name": "scoreAndTeamVerifier",
      "outputs": [
        {
          "internalType": "contract IScoreAndTeamVerifier",
          "name": "",
          "type": "address"
        }
      ],
      "stateMutability": "view",
      "type": "function"
    },
    {
      "inputs": [
        {
          "internalType": "uint256",
          "name": "_contestId",
          "type": "uint256"
        },
        {
          "internalType": "uint256",
          "name": "_score",
          "type": "uint256"
        },
        {
          "internalType": "uint256",
          "name": "_teamHash",
          "type": "uint256"
        },
        {
          "internalType": "uint256[60]",
          "name": "_playersScorecard",
          "type": "uint256[60]"
        },
        {
          "internalType": "uint256[8]",
          "name": "_teamAndScoreProof",
          "type": "uint256[8]"
        }
      ],
      "name": "submitTeamScore",
      "outputs": [],
      "stateMutability": "nonpayable",
      "type": "function"
    },
    {
      "inputs": [
        {
          "internalType": "bytes32",
          "name": "_teamHash",
          "type": "bytes32"
        },
        {
          "internalType": "uint256",
          "name": "_contestId",
          "type": "uint256"
        }
      ],
      "name": "updateTeam",
      "outputs": [],
      "stateMutability": "nonpayable",
      "type": "function"
    },
    {
      "inputs": [
        {
          "internalType": "uint256",
          "name": "_contestId",
          "type": "uint256"
        }
      ],
      "name": "withdrawWinningAmount",
      "outputs": [],
      "stateMutability": "nonpayable",
      "type": "function"
    }
  ],
  "bytecode": "0x60806040523480156200001157600080fd5b506040516200297f3803806200297f8339818101604052810190620000379190620000ee565b81600a60006101000a81548173ffffffffffffffffffffffffffffffffffffffff021916908373ffffffffffffffffffffffffffffffffffffffff160217905550806000806101000a81548173ffffffffffffffffffffffffffffffffffffffff021916908373ffffffffffffffffffffffffffffffffffffffff1602179055505050620001ab565b600081519050620000d18162000177565b92915050565b600081519050620000e88162000191565b92915050565b600080604083850312156200010257600080fd5b60006200011285828601620000d7565b92505060206200012585828601620000c0565b9150509250929050565b60006200013c8262000157565b9050919050565b600062000150826200012f565b9050919050565b600073ffffffffffffffffffffffffffffffffffffffff82169050919050565b62000182816200012f565b81146200018e57600080fd5b50565b6200019c8162000143565b8114620001a857600080fd5b50565b6127c480620001bb6000396000f3fe608060405234801561001057600080fd5b506004361061009e5760003560e01c8063904b9f7211610066578063904b9f721461013157806393a884fb1461016457806399c6bfe914610180578063a5fe97d8146101b0578063ef9d8c20146101cc5761009e565b8063018dbdfa146100a35780631089f5ed146100bf57806338edf385146100db57806340dd6a9f146100f757806349df080514610115575b600080fd5b6100bd60048036038101906100b891906119fc565b6101fc565b005b6100d960048036038101906100d491906119d3565b61091f565b005b6100f560048036038101906100f09190611920565b610be2565b005b6100ff610e6c565b60405161010c9190611f7e565b60405180910390f35b61012f600480360381019061012a9190611920565b610e92565b005b61014b600480360381019061014691906119d3565b61111d565b60405161015b9493929190612154565b60405180910390f35b61017e6004803603810190610179919061195c565b61118e565b005b61019a600480360381019061019591906119d3565b6114d1565b6040516101a79190612139565b60405180910390f35b6101ca60048036038101906101c591906119d3565b6114ee565b005b6101e660048036038101906101e191906119d3565b611775565b6040516101f39190612139565b60405180910390f35b600b600086815260200190815260200160002060003373ffffffffffffffffffffffffffffffffffffffff1673ffffffffffffffffffffffffffffffffffffffff16815260200190815260200160002060009054906101000a900460ff16610299576040517f08c379a000000000000000000000000000000000000000000000000000000000815260040161029090612119565b60405180910390fd5b60006006600087815260200190815260200160002060003373ffffffffffffffffffffffffffffffffffffffff1673ffffffffffffffffffffffffffffffffffffffff16815260200190815260200160002060009054906101000a900463ffffffff1663ffffffff1611610342576040517f08c379a000000000000000000000000000000000000000000000000000000000815260040161033990612039565b60405180910390fd5b600061034d846117cf565b9050806008600088815260200190815260200160002060003373ffffffffffffffffffffffffffffffffffffffff1673ffffffffffffffffffffffffffffffffffffffff16815260200190815260200160002054146103e1576040517f08c379a00000000000000000000000000000000000000000000000000000000081526004016103d890611f99565b60405180910390fd5b6103e9611859565b85816000603e8110610424577f4e487b7100000000000000000000000000000000000000000000000000000000600052603260045260246000fd5b60200201818152505084816001603e8110610468577f4e487b7100000000000000000000000000000000000000000000000000000000600052603260045260246000fd5b60200201818152505060005b603c81101561051c578481603c81106104b6577f4e487b7100000000000000000000000000000000000000000000000000000000600052603260045260246000fd5b6020020135826002836104c9919061223c565b603e8110610500577f4e487b7100000000000000000000000000000000000000000000000000000000600052603260045260246000fd5b602002018181525050808061051490612352565b915050610474565b50600a60009054906101000a900473ffffffffffffffffffffffffffffffffffffffff1673ffffffffffffffffffffffffffffffffffffffff1663ea59061d6040518060400160405280866000600881106105a0577f4e487b7100000000000000000000000000000000000000000000000000000000600052603260045260246000fd5b60200201358152602001866001600881106105e4577f4e487b7100000000000000000000000000000000000000000000000000000000600052603260045260246000fd5b6020020135815250604051806040016040528060405180604001604052808960026008811061063c577f4e487b7100000000000000000000000000000000000000000000000000000000600052603260045260246000fd5b6020020135815260200189600360088110610680577f4e487b7100000000000000000000000000000000000000000000000000000000600052603260045260246000fd5b602002013581525081526020016040518060400160405280896004600881106106d2577f4e487b7100000000000000000000000000000000000000000000000000000000600052603260045260246000fd5b6020020135815260200189600560088110610716577f4e487b7100000000000000000000000000000000000000000000000000000000600052603260045260246000fd5b6020020135815250815250604051806040016040528088600660088110610766577f4e487b7100000000000000000000000000000000000000000000000000000000600052603260045260246000fd5b60200201358152602001886007600881106107aa577f4e487b7100000000000000000000000000000000000000000000000000000000600052603260045260246000fd5b6020020135815250856040518563ffffffff1660e01b81526004016107d29493929190611ed7565b60006040518083038186803b1580156107ea57600080fd5b505afa1580156107fe573d6000803e3d6000fd5b50505050856007600089815260200190815260200160002060003373ffffffffffffffffffffffffffffffffffffffff1673ffffffffffffffffffffffffffffffffffffffff1681526020019081526020016000208190555085600260008981526020019081526020016000205410156108dd57856002600089815260200190815260200160002081905550336005600089815260200190815260200160002060006101000a81548173ffffffffffffffffffffffffffffffffffffffff021916908373ffffffffffffffffffffffffffffffffffffffff1602179055505b84877f8f3ba46937c6a2286944616f89478856a5d6a718ff6de89a27fe0fed5d6e5c448860405161090e9190612139565b60405180910390a350505050505050565b60016000828152602001908152602001600020600301544210610977576040517f08c379a000000000000000000000000000000000000000000000000000000000815260040161096e906120b9565b60405180910390fd5b600b600082815260200190815260200160002060003373ffffffffffffffffffffffffffffffffffffffff1673ffffffffffffffffffffffffffffffffffffffff16815260200190815260200160002060009054906101000a900460ff1615610a15576040517f08c379a0000000000000000000000000000000000000000000000000000000008152600401610a0c90612019565b60405180910390fd5b60008054906101000a900473ffffffffffffffffffffffffffffffffffffffff1673ffffffffffffffffffffffffffffffffffffffff166323b872dd333060016000868152602001908152602001600020600401546040518463ffffffff1660e01b8152600401610a8893929190611e77565b602060405180830381600087803b158015610aa257600080fd5b505af1158015610ab6573d6000803e3d6000fd5b505050506040513d601f19601f82011682018060405250810190610ada91906118f7565b506001600082815260200190815260200160002060040154600360008381526020019081526020016000206000828254610b14919061223c565b925050819055506001600b600083815260200190815260200160002060003373ffffffffffffffffffffffffffffffffffffffff1673ffffffffffffffffffffffffffffffffffffffff16815260200190815260200160002060006101000a81548160ff0219169083151502179055503373ffffffffffffffffffffffffffffffffffffffff166001600083815260200190815260200160002060010154827f48f5b44a07dc2b27f2e8ba95392d18124dc8553bc338c2ad73d3181984aa588c60405160405180910390a450565b60016000828152602001908152602001600020600301544210610c3a576040517f08c379a0000000000000000000000000000000000000000000000000000000008152600401610c3190611ff9565b60405180910390fd5b600b600082815260200190815260200160002060003373ffffffffffffffffffffffffffffffffffffffff1673ffffffffffffffffffffffffffffffffffffffff16815260200190815260200160002060009054906101000a900460ff16610cd7576040517f08c379a0000000000000000000000000000000000000000000000000000000008152600401610cce90612119565b60405180910390fd5b60006006600083815260200190815260200160002060003373ffffffffffffffffffffffffffffffffffffffff1673ffffffffffffffffffffffffffffffffffffffff16815260200190815260200160002060009054906101000a900463ffffffff1663ffffffff1614610d80576040517f08c379a0000000000000000000000000000000000000000000000000000000008152600401610d7790612079565b60405180910390fd5b610d8b8133846117ff565b60016006600083815260200190815260200160002060003373ffffffffffffffffffffffffffffffffffffffff1673ffffffffffffffffffffffffffffffffffffffff16815260200190815260200160002060008282829054906101000a900463ffffffff16610dfb9190612292565b92506101000a81548163ffffffff021916908363ffffffff1602179055503373ffffffffffffffffffffffffffffffffffffffff16817fa4d060b10b301749b9ae234539b078228fa044aa057b123e71239f559b60983184604051610e609190611f1e565b60405180910390a35050565b600a60009054906101000a900473ffffffffffffffffffffffffffffffffffffffff1681565b600b600082815260200190815260200160002060003373ffffffffffffffffffffffffffffffffffffffff1673ffffffffffffffffffffffffffffffffffffffff16815260200190815260200160002060009054906101000a900460ff16610f2f576040517f08c379a0000000000000000000000000000000000000000000000000000000008152600401610f2690612119565b60405180910390fd5b60016000828152602001908152602001600020600301544210610f87576040517f08c379a0000000000000000000000000000000000000000000000000000000008152600401610f7e90611ff9565b60405180910390fd5b60006006600083815260200190815260200160002060003373ffffffffffffffffffffffffffffffffffffffff1673ffffffffffffffffffffffffffffffffffffffff16815260200190815260200160002060009054906101000a900463ffffffff1663ffffffff161415611031576040517f08c379a000000000000000000000000000000000000000000000000000000000815260040161102890612099565b60405180910390fd5b61103c8133846117ff565b60016006600083815260200190815260200160002060003373ffffffffffffffffffffffffffffffffffffffff1673ffffffffffffffffffffffffffffffffffffffff16815260200190815260200160002060008282829054906101000a900463ffffffff166110ac9190612292565b92506101000a81548163ffffffff021916908363ffffffff1602179055503373ffffffffffffffffffffffffffffffffffffffff16817fa32316530769f78c9c4af0fda1cb5be145cf1279389050d6d9842c2c3d2b4e7f846040516111119190611f1e565b60405180910390a35050565b600080600080600160008681526020019081526020016000206001015460016000878152602001908152602001600020600301546001600088815260200190815260200160002060040154600160008981526020019081526020016000206002015493509350935093509193509193565b8242106111d0576040517f08c379a00000000000000000000000000000000000000000000000000000000081526004016111c7906120d9565b60405180910390fd5b60006008866040516020016111e59190611e41565b6040516020818303038152906040528051906020012060001c901c90506001600082815260200190815260200160002060050160009054906101000a900460ff1615611266576040517f08c379a000000000000000000000000000000000000000000000000000000000815260040161125d906120f9565b60405180910390fd5b60008054906101000a900473ffffffffffffffffffffffffffffffffffffffff1673ffffffffffffffffffffffffffffffffffffffff166323b872dd3330856040518463ffffffff1660e01b81526004016112c393929190611e77565b602060405180830381600087803b1580156112dd57600080fd5b505af11580156112f1573d6000803e3d6000fd5b505050506040513d601f19601f8201168201806040525081019061131591906118f7565b5081600360008381526020019081526020016000206000828254611339919061223c565b92505081905550600060016000838152602001908152602001600020905081816000018190555085816001018190555084816003018190555083816002018190555082816004018190555060018160050160006101000a81548160ff021916908315150217905550600960008781526020019081526020016000208290806001815401808255809150506001900390600052602060002001600090919091909150556001600b600084815260200190815260200160002060003373ffffffffffffffffffffffffffffffffffffffff1673ffffffffffffffffffffffffffffffffffffffff16815260200190815260200160002060006101000a81548160ff02191690831515021790555085827f84eba9bda70a4af06c7d9da5968df1be66d8dba59f2cb6a5f7bbc1cf04071e918986898960405161147b9493929190611f39565b60405180910390a33373ffffffffffffffffffffffffffffffffffffffff1686837f48f5b44a07dc2b27f2e8ba95392d18124dc8553bc338c2ad73d3181984aa588c60405160405180910390a450505050505050565b600060026000838152602001908152602001600020549050919050565b6004600082815260200190815260200160002060009054906101000a900460ff161561154f576040517f08c379a000000000000000000000000000000000000000000000000000000000815260040161154690611fb9565b60405180910390fd5b600160008281526020019081526020016000206002015442116115a7576040517f08c379a000000000000000000000000000000000000000000000000000000000815260040161159e90611fd9565b60405180910390fd5b600160008281526020019081526020016000206003015442116115ff576040517f08c379a00000000000000000000000000000000000000000000000000000000081526004016115f690612059565b60405180910390fd5b60006005600083815260200190815260200160002060009054906101000a900473ffffffffffffffffffffffffffffffffffffffff16905060016004600084815260200190815260200160002060006101000a81548160ff02191690831515021790555060008054906101000a900473ffffffffffffffffffffffffffffffffffffffff1673ffffffffffffffffffffffffffffffffffffffff1663a9059cbb8260036000868152602001908152602001600020546040518363ffffffff1660e01b81526004016116d1929190611eae565b602060405180830381600087803b1580156116eb57600080fd5b505af11580156116ff573d6000803e3d6000fd5b505050506040513d601f19601f8201168201806040525081019061172391906118f7565b50817fc218e8a26972351971bf71a0bbefcd5ea48c32fd402d9892d2d88bf26ac3f852336003600086815260200190815260200160002054604051611769929190611eae565b60405180910390a25050565b60006007600083815260200190815260200160002060003373ffffffffffffffffffffffffffffffffffffffff1673ffffffffffffffffffffffffffffffffffffffff168152602001908152602001600020549050919050565b6000816040516020016117e29190611e5c565b604051602081830303815290604052805190602001209050919050565b806008600085815260200190815260200160002060008473ffffffffffffffffffffffffffffffffffffffff1673ffffffffffffffffffffffffffffffffffffffff16815260200190815260200160002081905550505050565b604051806107c00160405280603e90602082028036833780820191505090505090565b6000819050826020603c028201111561189457600080fd5b92915050565b6000819050826020600802820111156118b257600080fd5b92915050565b6000815190506118c781612749565b92915050565b6000813590506118dc81612760565b92915050565b6000813590506118f181612777565b92915050565b60006020828403121561190957600080fd5b6000611917848285016118b8565b91505092915050565b6000806040838503121561193357600080fd5b6000611941858286016118cd565b9250506020611952858286016118e2565b9150509250929050565b600080600080600060a0868803121561197457600080fd5b6000611982888289016118cd565b9550506020611993888289016118e2565b94505060406119a4888289016118e2565b93505060606119b5888289016118e2565b92505060806119c6888289016118e2565b9150509295509295909350565b6000602082840312156119e557600080fd5b60006119f3848285016118e2565b91505092915050565b60008060008060006108e08688031215611a1557600080fd5b6000611a23888289016118e2565b9550506020611a34888289016118e2565b9450506040611a45888289016118e2565b9350506060611a568882890161187c565b9250506107e0611a688882890161189a565b9150509295509295909350565b6000611a818383611b0b565b60408301905092915050565b6000611a998383611e0c565b60208301905092915050565b611aae816122cc565b82525050565b611abd816121b7565b611ac781846121ff565b9250611ad282612199565b8060005b83811015611b03578151611aea8782611a75565b9650611af5836121d8565b925050600181019050611ad6565b505050505050565b611b14816121c2565b611b1e818461220a565b9250611b29826121a3565b8060005b83811015611b5a578151611b418782611a8d565b9650611b4c836121e5565b925050600181019050611b2d565b505050505050565b611b6b816121c2565b611b758184612215565b9250611b80826121a3565b8060005b83811015611bb1578151611b988782611a8d565b9650611ba3836121e5565b925050600181019050611b84565b505050505050565b611bc2816121cd565b611bcc8184612220565b9250611bd7826121ad565b8060005b83811015611c08578151611bef8782611a8d565b9650611bfa836121f2565b925050600181019050611bdb565b505050505050565b611c19816122ea565b82525050565b611c30611c2b826122ea565b61239b565b82525050565b611c3f8161232e565b82525050565b6000611c5260288361222b565b9150611c5d826123de565b604082019050919050565b6000611c7560238361222b565b9150611c808261242d565b604082019050919050565b6000611c98601b8361222b565b9150611ca38261247c565b602082019050919050565b6000611cbb60378361222b565b9150611cc6826124a5565b604082019050919050565b6000611cde60258361222b565b9150611ce9826124f4565b604082019050919050565b6000611d0160118361222b565b9150611d0c82612543565b602082019050919050565b6000611d24601a8361222b565b9150611d2f8261256c565b602082019050919050565b6000611d4760288361222b565b9150611d5282612595565b604082019050919050565b6000611d6a603d8361222b565b9150611d75826125e4565b604082019050919050565b6000611d8d603f8361222b565b9150611d9882612633565b604082019050919050565b6000611db060308361222b565b9150611dbb82612682565b604082019050919050565b6000611dd3603f8361222b565b9150611dde826126d1565b604082019050919050565b6000611df6601d8361222b565b9150611e0182612720565b602082019050919050565b611e1581612314565b82525050565b611e2481612314565b82525050565b611e3b611e3682612314565b6123a5565b82525050565b6000611e4d8284611c1f565b60208201915081905092915050565b6000611e688284611e2a565b60208201915081905092915050565b6000606082019050611e8c6000830186611aa5565b611e996020830185611aa5565b611ea66040830184611e1b565b949350505050565b6000604082019050611ec36000830185611aa5565b611ed06020830184611e1b565b9392505050565b60006108c082019050611eed6000830187611b62565b611efa6040830186611ab4565b611f0760c0830185611b62565b611f15610100830184611bb9565b95945050505050565b6000602082019050611f336000830184611c10565b92915050565b6000608082019050611f4e6000830187611c10565b611f5b6020830186611e1b565b611f686040830185611e1b565b611f756060830184611e1b565b95945050505050565b6000602082019050611f936000830184611c36565b92915050565b60006020820190508181036000830152611fb281611c45565b9050919050565b60006020820190508181036000830152611fd281611c68565b9050919050565b60006020820190508181036000830152611ff281611c8b565b9050919050565b6000602082019050818103600083015261201281611cae565b9050919050565b6000602082019050818103600083015261203281611cd1565b9050919050565b6000602082019050818103600083015261205281611cf4565b9050919050565b6000602082019050818103600083015261207281611d17565b9050919050565b6000602082019050818103600083015261209281611d3a565b9050919050565b600060208201905081810360008301526120b281611d5d565b9050919050565b600060208201905081810360008301526120d281611d80565b9050919050565b600060208201905081810360008301526120f281611da3565b9050919050565b6000602082019050818103600083015261211281611dc6565b9050919050565b6000602082019050818103600083015261213281611de9565b9050919050565b600060208201905061214e6000830184611e1b565b92915050565b60006080820190506121696000830187611e1b565b6121766020830186611e1b565b6121836040830185611e1b565b6121906060830184611e1b565b95945050505050565b6000819050919050565b6000819050919050565b6000819050919050565b600060029050919050565b600060029050919050565b6000603e9050919050565b6000602082019050919050565b6000602082019050919050565b6000602082019050919050565b600081905092915050565b600081905092915050565b600081905092915050565b600081905092915050565b600082825260208201905092915050565b600061224782612314565b915061225283612314565b9250827fffffffffffffffffffffffffffffffffffffffffffffffffffffffffffffffff03821115612287576122866123af565b5b828201905092915050565b600061229d8261231e565b91506122a88361231e565b92508263ffffffff038211156122c1576122c06123af565b5b828201905092915050565b60006122d7826122f4565b9050919050565b60008115159050919050565b6000819050919050565b600073ffffffffffffffffffffffffffffffffffffffff82169050919050565b6000819050919050565b600063ffffffff82169050919050565b600061233982612340565b9050919050565b600061234b826122f4565b9050919050565b600061235d82612314565b91507fffffffffffffffffffffffffffffffffffffffffffffffffffffffffffffffff8214156123905761238f6123af565b5b600182019050919050565b6000819050919050565b6000819050919050565b7f4e487b7100000000000000000000000000000000000000000000000000000000600052601160045260246000fd5b7f5375626d6974207465616d48617368206f6620796f7572206c6173742073617660008201527f6564207465616d2e000000000000000000000000000000000000000000000000602082015250565b7f416c726561647920636c61696d6564207468652077696e6e696e6720616d6f7560008201527f6e742e0000000000000000000000000000000000000000000000000000000000602082015250565b7f436f6e74657374206e6f742079657420636f6d706c6574656420200000000000600082015250565b7f436f6e7465737420636c6f73656420666f72205465616d207375626d6973737360008201527f696f6e20692e6520656e642074696d6520706173736564000000000000000000602082015250565b7f55736572206861766520616c7265616479206a6f696e65642074686520636f6e60008201527f746573742e000000000000000000000000000000000000000000000000000000602082015250565b7f4e6f207465616d207375626d6974746564000000000000000000000000000000600082015250565b7f436f6e74657374206e6f742079657420636f6d706c6574656420000000000000600082015250565b7f416c726561647920706f737465642061207465616d202c20747279207570646160008201527f74696e672069742e000000000000000000000000000000000000000000000000602082015250565b7f5465616d20646f6e27742065786973742c2043616e277420757064617465207460008201527f65616d2e20506c6561736520666972737420637265617465207465616d000000602082015250565b7f436f6e7465737420636c6f73656420666f72206e6577206d656d626572732c2060008201527f5465616d207375626d697373696f6e20656e642074696d652070617373656400602082015250565b7f5465616d205375626d697373696f6e20656e642074696d652073686f756c642060008201527f626520696e207468652066757475726500000000000000000000000000000000602082015250565b7f436f6e74657374204e616d6520616c72656164792065786973742c20706c656160008201527f7365206372656174652077697468206e657720636f6e74657374206e616d6500602082015250565b7f506c65617365206a6f696e2074686520636f6e74657374206669727374000000600082015250565b612752816122de565b811461275d57600080fd5b50565b612769816122ea565b811461277457600080fd5b50565b61278081612314565b811461278b57600080fd5b5056fea264697066735822122031395a5a9c006f89e97e36a303902c479a4ba76a36328de1d0eaa2b9d105dc2164736f6c63430008040033",
  "linkReferences": {},
  "deployedLinkReferences": {}
}