{
  "_format": "hh-sol-artifact-1",
  "contractName": "TrueFantasySports",
  "sourceName": "contracts/TrueFantasySports.sol",
  "abi": [
    {
      "inputs": [
        {
          "internalType": "uint8",
          "name": "_treeDepth",
          "type": "uint8"
        },
        {
          "internalType": "contract IVerifier",
          "name": "_semaphoreMembershipVerifier",
          "type": "address"
        },
        {
          "internalType": "contract IScoreAndTeamVerifier",
          "name": "_scoreAndTeamVerifier",
          "type": "address"
        }
      ],
      "stateMutability": "nonpayable",
      "type": "constructor"
    },
    {
      "anonymous": false,
      "inputs": [
        {
          "indexed": true,
          "internalType": "uint256",
          "name": "contestGroupId",
          "type": "uint256"
        },
        {
          "indexed": false,
          "internalType": "bytes32",
          "name": "contestName",
          "type": "bytes32"
        },
        {
          "indexed": true,
          "internalType": "uint256",
          "name": "matchId",
          "type": "uint256"
        },
        {
          "indexed": false,
          "internalType": "uint256",
          "name": "entryFee",
          "type": "uint256"
        },
        {
          "indexed": false,
          "internalType": "uint256",
          "name": "teamSubmissionEndTime",
          "type": "uint256"
        }
      ],
      "name": "ContestCreated",
      "type": "event"
    },
    {
      "anonymous": false,
      "inputs": [
        {
          "indexed": true,
          "internalType": "uint256",
          "name": "groupId",
          "type": "uint256"
        },
        {
          "indexed": false,
          "internalType": "uint8",
          "name": "depth",
          "type": "uint8"
        },
        {
          "indexed": false,
          "internalType": "uint256",
          "name": "zeroValue",
          "type": "uint256"
        }
      ],
      "name": "GroupCreated",
      "type": "event"
    },
    {
      "anonymous": false,
      "inputs": [
        {
          "indexed": true,
          "internalType": "uint256",
          "name": "groupId",
          "type": "uint256"
        },
        {
          "indexed": false,
          "internalType": "uint256",
          "name": "identityCommitment",
          "type": "uint256"
        },
        {
          "indexed": false,
          "internalType": "uint256",
          "name": "root",
          "type": "uint256"
        }
      ],
      "name": "MemberAdded",
      "type": "event"
    },
    {
      "anonymous": false,
      "inputs": [
        {
          "indexed": true,
          "internalType": "uint256",
          "name": "groupId",
          "type": "uint256"
        },
        {
          "indexed": false,
          "internalType": "uint256",
          "name": "identityCommitment",
          "type": "uint256"
        },
        {
          "indexed": false,
          "internalType": "uint256",
          "name": "root",
          "type": "uint256"
        }
      ],
      "name": "MemberRemoved",
      "type": "event"
    },
    {
      "anonymous": false,
      "inputs": [
        {
          "indexed": false,
          "internalType": "uint256",
          "name": "nullifierHash",
          "type": "uint256"
        }
      ],
      "name": "NullifierHashAdded",
      "type": "event"
    },
    {
      "anonymous": false,
      "inputs": [
        {
          "indexed": true,
          "internalType": "uint256",
          "name": "groupId",
          "type": "uint256"
        },
        {
          "indexed": false,
          "internalType": "bytes32",
          "name": "signal",
          "type": "bytes32"
        }
      ],
      "name": "TeamPosted",
      "type": "event"
    },
    {
      "anonymous": false,
      "inputs": [
        {
          "indexed": true,
          "internalType": "uint256",
          "name": "groupId",
          "type": "uint256"
        },
        {
          "indexed": true,
          "internalType": "uint256",
          "name": "teamHash",
          "type": "uint256"
        },
        {
          "indexed": false,
          "internalType": "uint256",
          "name": "score",
          "type": "uint256"
        }
      ],
      "name": "TeamScore",
      "type": "event"
    },
    {
      "inputs": [
        {
          "internalType": "uint256",
          "name": "_contestId",
          "type": "uint256"
        },
        {
          "internalType": "uint256",
          "name": "_identityCommitment",
          "type": "uint256"
        }
      ],
      "name": "addMember",
      "outputs": [],
      "stateMutability": "nonpayable",
      "type": "function"
    },
    {
      "inputs": [
        {
          "internalType": "bytes32",
          "name": "_contestName",
          "type": "bytes32"
        },
        {
          "internalType": "uint256",
          "name": "_matchId",
          "type": "uint256"
        },
        {
          "internalType": "uint256",
          "name": "_teamSubmissionEndTime",
          "type": "uint256"
        },
        {
          "internalType": "uint256",
          "name": "_entryFee",
          "type": "uint256"
        },
        {
          "internalType": "uint256",
          "name": "_identityCommitment",
          "type": "uint256"
        }
      ],
      "name": "createContest",
      "outputs": [],
      "stateMutability": "nonpayable",
      "type": "function"
    },
    {
      "inputs": [
        {
          "internalType": "uint256",
          "name": "contestId",
          "type": "uint256"
        }
      ],
      "name": "getContest",
      "outputs": [
        {
          "internalType": "uint256",
          "name": "matchId",
          "type": "uint256"
        },
        {
          "internalType": "uint256",
          "name": "teamSubmissionEndTime",
          "type": "uint256"
        },
        {
          "internalType": "uint256",
          "name": "entryfee",
          "type": "uint256"
        }
      ],
      "stateMutability": "view",
      "type": "function"
    },
    {
      "inputs": [
        {
          "internalType": "uint256",
          "name": "groupId",
          "type": "uint256"
        }
      ],
      "name": "getDepth",
      "outputs": [
        {
          "internalType": "uint8",
          "name": "",
          "type": "uint8"
        }
      ],
      "stateMutability": "view",
      "type": "function"
    },
    {
      "inputs": [
        {
          "internalType": "uint256",
          "name": "groupId",
          "type": "uint256"
        }
      ],
      "name": "getNumberOfLeaves",
      "outputs": [
        {
          "internalType": "uint256",
          "name": "",
          "type": "uint256"
        }
      ],
      "stateMutability": "view",
      "type": "function"
    },
    {
      "inputs": [
        {
          "internalType": "uint256",
          "name": "groupId",
          "type": "uint256"
        }
      ],
      "name": "getRoot",
      "outputs": [
        {
          "internalType": "uint256",
          "name": "",
          "type": "uint256"
        }
      ],
      "stateMutability": "view",
      "type": "function"
    },
    {
      "inputs": [
        {
          "internalType": "uint256",
          "name": "nullifierHash",
          "type": "uint256"
        }
      ],
      "name": "getUserNullifierCount",
      "outputs": [
        {
          "internalType": "uint256",
          "name": "count",
          "type": "uint256"
        }
      ],
      "stateMutability": "view",
      "type": "function"
    },
    {
      "inputs": [
        {
          "internalType": "bytes32",
          "name": "_teamIdentifier",
          "type": "bytes32"
        },
        {
          "internalType": "bytes32",
          "name": "_teamHash",
          "type": "bytes32"
        },
        {
          "internalType": "uint256",
          "name": "_nullifierHash",
          "type": "uint256"
        },
        {
          "internalType": "uint256",
          "name": "_contestId",
          "type": "uint256"
        },
        {
          "internalType": "uint256[8]",
          "name": "_proof",
          "type": "uint256[8]"
        }
      ],
      "name": "postTeam",
      "outputs": [],
      "stateMutability": "nonpayable",
      "type": "function"
    },
    {
      "inputs": [],
      "name": "scoreAndTeamVerifier",
      "outputs": [
        {
          "internalType": "contract IScoreAndTeamVerifier",
          "name": "",
          "type": "address"
        }
      ],
      "stateMutability": "view",
      "type": "function"
    },
    {
      "inputs": [],
      "name": "semaphoreMembershipVerifier",
      "outputs": [
        {
          "internalType": "contract IVerifier",
          "name": "",
          "type": "address"
        }
      ],
      "stateMutability": "view",
      "type": "function"
    },
    {
      "inputs": [
        {
          "internalType": "bytes32",
          "name": "_teamIdentifier",
          "type": "bytes32"
        },
        {
          "internalType": "uint256",
          "name": "_initialNullifierHash",
          "type": "uint256"
        },
        {
          "internalType": "uint256",
          "name": "_newNullifierHash",
          "type": "uint256"
        },
        {
          "internalType": "uint256",
          "name": "_contestId",
          "type": "uint256"
        },
        {
          "internalType": "uint256[8]",
          "name": "_semaphoreProof",
          "type": "uint256[8]"
        },
        {
          "internalType": "uint256",
          "name": "_score",
          "type": "uint256"
        },
        {
          "internalType": "uint256",
          "name": "_teamHash",
          "type": "uint256"
        },
        {
          "internalType": "uint256[30]",
          "name": "_playersScorecard",
          "type": "uint256[30]"
        },
        {
          "internalType": "uint256[8]",
          "name": "_teamAndScoreProof",
          "type": "uint256[8]"
        }
      ],
      "name": "submitTeamScore",
      "outputs": [],
      "stateMutability": "nonpayable",
      "type": "function"
    },
    {
      "inputs": [],
      "name": "treeDepth",
      "outputs": [
        {
          "internalType": "uint8",
          "name": "",
          "type": "uint8"
        }
      ],
      "stateMutability": "view",
      "type": "function"
    },
    {
      "inputs": [
        {
          "internalType": "bytes32",
          "name": "_teamIdentifier",
          "type": "bytes32"
        },
        {
          "internalType": "bytes32",
          "name": "_teamHash",
          "type": "bytes32"
        },
        {
          "internalType": "uint256",
          "name": "_initialNullifierHash",
          "type": "uint256"
        },
        {
          "internalType": "uint256",
          "name": "_newNullifierHash",
          "type": "uint256"
        },
        {
          "internalType": "uint256",
          "name": "_contestId",
          "type": "uint256"
        },
        {
          "internalType": "uint256[8]",
          "name": "_proof",
          "type": "uint256[8]"
        }
      ],
      "name": "updateTeam",
      "outputs": [],
      "stateMutability": "nonpayable",
      "type": "function"
    }
  ],
  "bytecode": "0x60806040523480156200001157600080fd5b5060405162002b5538038062002b55833981810160405281019062000037919062000122565b82600860006101000a81548160ff021916908360ff16021790555081600860016101000a81548173ffffffffffffffffffffffffffffffffffffffff021916908373ffffffffffffffffffffffffffffffffffffffff16021790555080600960006101000a81548173ffffffffffffffffffffffffffffffffffffffff021916908373ffffffffffffffffffffffffffffffffffffffff1602179055505050506200022f565b600081519050620000ee81620001e1565b92915050565b6000815190506200010581620001fb565b92915050565b6000815190506200011c8162000215565b92915050565b6000806000606084860312156200013857600080fd5b600062000148868287016200010b565b93505060206200015b86828701620000f4565b92505060406200016e86828701620000dd565b9150509250925092565b60006200018582620001b4565b9050919050565b6000620001998262000178565b9050919050565b6000620001ad8262000178565b9050919050565b600073ffffffffffffffffffffffffffffffffffffffff82169050919050565b600060ff82169050919050565b620001ec816200018c565b8114620001f857600080fd5b50565b6200020681620001a0565b81146200021257600080fd5b50565b6200022081620001d4565b81146200022c57600080fd5b50565b612916806200023f6000396000f3fe608060405234801561001057600080fd5b50600436106100cf5760003560e01c806375e618c91161008c5780639b24b3b0116100665780639b24b3b014610214578063b9c78c2b14610244578063bcd4cfda14610274578063ee1d248114610290576100cf565b806375e618c914610196578063904b9f72146101c657806393a884fb146101f8576100cf565b806316a56c41146100d45780631783efc3146100f25780633b7c8d531461010e57806340dd6a9f1461013e57806365ad434d1461015c5780636fd6d84614610178575b600080fd5b6100dc6102ac565b6040516100e9919061223c565b60405180910390f35b61010c600480360381019061010791906119e2565b6102bf565b005b610128600480360381019061012391906119b9565b6103d4565b60405161013591906121c1565b60405180910390f35b610146610407565b6040516101539190611fab565b60405180910390f35b61017660048036038101906101719190611777565b61042d565b005b6101806105e0565b60405161018d9190611fc6565b60405180910390f35b6101b060048036038101906101ab91906119b9565b610606565b6040516101bd919061223c565b60405180910390f35b6101e060048036038101906101db91906119b9565b610633565b6040516101ef93929190612205565b60405180910390f35b610212600480360381019061020d9190611942565b61068a565b005b61022e600480360381019061022991906119b9565b6107f6565b60405161023b91906121c1565b60405180910390f35b61025e600480360381019061025991906119b9565b610816565b60405161026b91906121c1565b60405180910390f35b61028e600480360381019061028991906117ef565b610836565b005b6102aa60048036038101906102a59190611879565b6109cb565b005b600860009054906101000a900460ff1681565b60026000838152602001908152602001600020600201544210610317576040517f08c379a000000000000000000000000000000000000000000000000000000000815260040161030e90612101565b60405180910390fd5b60056000838152602001908152602001600020600082815260200190815260200160002060009054906101000a900460ff1615610389576040517f08c379a000000000000000000000000000000000000000000000000000000000815260040161038090612061565b60405180910390fd5b6103938282610fed565b600160056000848152602001908152602001600020600083815260200190815260200160002060006101000a81548160ff0219169083151502179055505050565b60006003600083815260200190815260200160002060009054906101000a900463ffffffff1663ffffffff169050919050565b600960009054906101000a900473ffffffffffffffffffffffffffffffffffffffff1681565b60026000838152602001908152602001600020600201544210610485576040517f08c379a000000000000000000000000000000000000000000000000000000000815260040161047c90612041565b60405180910390fd5b60006003600085815260200190815260200160002060009054906101000a900463ffffffff1663ffffffff16146104f1576040517f08c379a00000000000000000000000000000000000000000000000000000000081526004016104e8906120c1565b60405180910390fd5b60006001600084815260200190815260200160002060010154905061053c8682868686600860019054906101000a900473ffffffffffffffffffffffffffffffffffffffff16611105565b610546848661145e565b61054f8461147a565b60016003600086815260200190815260200160002060008282829054906101000a900463ffffffff1661058291906123a6565b92506101000a81548163ffffffff021916908363ffffffff160217905550827fe7debf6391b9ab30850b4d579d40b04fb9172bf845efd80ab69e37c97dbcb516876040516105d09190611f59565b60405180910390a2505050505050565b600860019054906101000a900473ffffffffffffffffffffffffffffffffffffffff1681565b60006001600083815260200190815260200160002060000160009054906101000a900460ff169050919050565b60008060006002600085815260200190815260200160002060010154600260008681526020019081526020016000206002015460026000878152602001908152602001600020600301549250925092509193909250565b8242106106cc576040517f08c379a00000000000000000000000000000000000000000000000000000000081526004016106c390612121565b60405180910390fd5b60006106d7866114a8565b90506106f481600860009054906101000a900460ff1660006114df565b6000600260008381526020019081526020016000209050818160000181905550858160010181905550848160020181905550838160030181905550600760008781526020019081526020016000208290806001815401808255809150506001900390600052602060002001600090919091909150556107738284610fed565b600160056000848152602001908152602001600020600085815260200190815260200160002060006101000a81548160ff02191690831515021790555085827fca89da80139049526a3c9d7981b91f28d31031ee0005c914ad27e6705fd70c598987896040516107e593929190611f74565b60405180910390a350505050505050565b600060016000838152602001908152602001600020600101549050919050565b600060016000838152602001908152602001600020600201549050919050565b60006003600086815260200190815260200160002060009054906101000a900463ffffffff1663ffffffff1614156108a3576040517f08c379a000000000000000000000000000000000000000000000000000000000815260040161089a906120e1565b60405180910390fd5b60006001600084815260200190815260200160002060010154905060006003600087815260200190815260200160002060009054906101000a900463ffffffff16905060006108f2858361164d565b90506109248984888488600860019054906101000a900473ffffffffffffffffffffffffffffffffffffffff16611105565b61092e878961145e565b6109378661147a565b60016003600089815260200190815260200160002060008282829054906101000a900463ffffffff1661096a91906123a6565b92506101000a81548163ffffffff021916908363ffffffff160217905550847fe7debf6391b9ab30850b4d579d40b04fb9172bf845efd80ab69e37c97dbcb5168a6040516109b89190611f59565b60405180910390a2505050505050505050565b6000600360008a815260200190815260200160002060009054906101000a900463ffffffff1663ffffffff1611610a37576040517f08c379a0000000000000000000000000000000000000000000000000000000008152600401610a2e90612081565b60405180910390fd5b6000600160008881526020019081526020016000206001015490506000600360008b815260200190815260200160002060009054906101000a900463ffffffff1690506000610a86898361164d565b9050610ab88c848c848c600860019054906101000a900473ffffffffffffffffffffffffffffffffffffffff16611105565b6000610ac387611687565b905080600660008e81526020019081526020016000205414610b1a576040517f08c379a0000000000000000000000000000000000000000000000000000000008152600401610b1190611fe1565b60405180910390fd5b610b226116ee565b8881600060208110610b5d577f4e487b7100000000000000000000000000000000000000000000000000000000600052603260045260246000fd5b6020020181815250508781600160208110610ba1577f4e487b7100000000000000000000000000000000000000000000000000000000600052603260045260246000fd5b60200201818152505060005b601e811015610c55578781601e8110610bef577f4e487b7100000000000000000000000000000000000000000000000000000000600052603260045260246000fd5b602002013582600283610c029190612350565b60208110610c39577f4e487b7100000000000000000000000000000000000000000000000000000000600052603260045260246000fd5b6020020181815250508080610c4d90612479565b915050610bad565b50600960009054906101000a900473ffffffffffffffffffffffffffffffffffffffff1673ffffffffffffffffffffffffffffffffffffffff16633cc08b24604051806040016040528089600060088110610cd9577f4e487b7100000000000000000000000000000000000000000000000000000000600052603260045260246000fd5b6020020135815260200189600160088110610d1d577f4e487b7100000000000000000000000000000000000000000000000000000000600052603260045260246000fd5b6020020135815250604051806040016040528060405180604001604052808c600260088110610d75577f4e487b7100000000000000000000000000000000000000000000000000000000600052603260045260246000fd5b602002013581526020018c600360088110610db9577f4e487b7100000000000000000000000000000000000000000000000000000000600052603260045260246000fd5b6020020135815250815260200160405180604001604052808c600460088110610e0b577f4e487b7100000000000000000000000000000000000000000000000000000000600052603260045260246000fd5b602002013581526020018c600560088110610e4f577f4e487b7100000000000000000000000000000000000000000000000000000000600052603260045260246000fd5b602002013581525081525060405180604001604052808b600660088110610e9f577f4e487b7100000000000000000000000000000000000000000000000000000000600052603260045260246000fd5b602002013581526020018b600760088110610ee3577f4e487b7100000000000000000000000000000000000000000000000000000000600052603260045260246000fd5b6020020135815250856040518563ffffffff1660e01b8152600401610f0b9493929190611ecb565b60006040518083038186803b158015610f2357600080fd5b505afa158015610f37573d6000803e3d6000fd5b5050505088600460008f8152602001908152602001600020819055506001600360008f815260200190815260200160002060008282829054906101000a900463ffffffff16610f8691906123a6565b92506101000a81548163ffffffff021916908363ffffffff160217905550878b7f8f3ba46937c6a2286944616f89478856a5d6a718ff6de89a27fe0fed5d6e5c448b604051610fd591906121c1565b60405180910390a35050505050505050505050505050565b6000610ff883610606565b60ff16141561103c576040517f08c379a0000000000000000000000000000000000000000000000000000000008152600401611033906120a1565b60405180910390fd5b6001600083815260200190815260200160002073__$4c0484323457fe1a856f46a4759b553fe4$__63168703fa9091836040518363ffffffff1660e01b8152600401611089929190612161565b60006040518083038186803b1580156110a157600080fd5b505af41580156110b5573d6000803e3d6000fd5b5050505060006110c4836107f6565b9050827f03fd27265b7dd1f55558bedc22a58fa3b10afb1be776e614bd5a7ba7b949940683836040516110f89291906121dc565b60405180910390a2505050565b60008085815260200190815260200160002060009054906101000a900460ff1615611165576040517f08c379a000000000000000000000000000000000000000000000000000000000815260040161115c90612001565b60405180910390fd5b6000611170876116b7565b90508173ffffffffffffffffffffffffffffffffffffffff16635fe8c13b6040518060400160405280866000600881106111d3577f4e487b7100000000000000000000000000000000000000000000000000000000600052603260045260246000fd5b6020020135815260200186600160088110611217577f4e487b7100000000000000000000000000000000000000000000000000000000600052603260045260246000fd5b6020020135815250604051806040016040528060405180604001604052808960026008811061126f577f4e487b7100000000000000000000000000000000000000000000000000000000600052603260045260246000fd5b60200201358152602001896003600881106112b3577f4e487b7100000000000000000000000000000000000000000000000000000000600052603260045260246000fd5b60200201358152508152602001604051806040016040528089600460088110611305577f4e487b7100000000000000000000000000000000000000000000000000000000600052603260045260246000fd5b6020020135815260200189600560088110611349577f4e487b7100000000000000000000000000000000000000000000000000000000600052603260045260246000fd5b6020020135815250815250604051806040016040528088600660088110611399577f4e487b7100000000000000000000000000000000000000000000000000000000600052603260045260246000fd5b60200201358152602001886007600881106113dd577f4e487b7100000000000000000000000000000000000000000000000000000000600052603260045260246000fd5b602002013581525060405180608001604052808c81526020018b81526020018781526020018a8152506040518563ffffffff1660e01b81526004016114259493929190611f12565b60006040518083038186803b15801561143d57600080fd5b505afa158015611451573d6000803e3d6000fd5b5050505050505050505050565b8060066000848152602001908152602001600020819055505050565b600160008083815260200190815260200160002060006101000a81548160ff02191690831515021790555050565b60006008826040516020016114bd9190611e69565b6040516020818303038152906040528051906020012060001c901c9050919050565b7f30644e72e131a029b85045b68181585d2833e84879b9709143e1f593f00000018310611541576040517f08c379a000000000000000000000000000000000000000000000000000000000815260040161153890612141565b60405180910390fd5b600061154c84610606565b60ff161461158f576040517f08c379a000000000000000000000000000000000000000000000000000000000815260040161158690612021565b60405180910390fd5b6001600084815260200190815260200160002073__$4c0484323457fe1a856f46a4759b553fe4$__63b4bdd117909184846040518463ffffffff1660e01b81526004016115de9392919061218a565b60006040518083038186803b1580156115f657600080fd5b505af415801561160a573d6000803e3d6000fd5b50505050827fc3082aa494e9088c2c9f0fb62a0b6bd46e6699acb94cfba35be29b95a93f68c88383604051611640929190612257565b60405180910390a2505050565b600060088383604051602001611664929190611e9f565b6040516020818303038152906040528051906020012060001c901c905092915050565b60008160405160200161169a9190611e84565b604051602081830303815290604052805190602001209050919050565b60006008826040516020016116cc9190611e69565b6040516020818303038152906040528051906020012060001c901c9050919050565b604051806104000160405280602090602082028036833780820191505090505090565b6000819050826020601e028201111561172957600080fd5b92915050565b60008190508260206008028201111561174757600080fd5b92915050565b60008135905061175c816128b2565b92915050565b600081359050611771816128c9565b92915050565b6000806000806000610180868803121561179057600080fd5b600061179e8882890161174d565b95505060206117af8882890161174d565b94505060406117c088828901611762565b93505060606117d188828901611762565b92505060806117e28882890161172f565b9150509295509295909350565b6000806000806000806101a0878903121561180957600080fd5b600061181789828a0161174d565b965050602061182889828a0161174d565b955050604061183989828a01611762565b945050606061184a89828a01611762565b935050608061185b89828a01611762565b92505060a061186c89828a0161172f565b9150509295509295509295565b60008060008060008060008060006106808a8c03121561189857600080fd5b60006118a68c828d0161174d565b99505060206118b78c828d01611762565b98505060406118c88c828d01611762565b97505060606118d98c828d01611762565b96505060806118ea8c828d0161172f565b9550506101806118fc8c828d01611762565b9450506101a061190e8c828d01611762565b9350506101c06119208c828d01611711565b9250506105806119328c828d0161172f565b9150509295985092959850929598565b600080600080600060a0868803121561195a57600080fd5b60006119688882890161174d565b955050602061197988828901611762565b945050604061198a88828901611762565b935050606061199b88828901611762565b92505060806119ac88828901611762565b9150509295509295909350565b6000602082840312156119cb57600080fd5b60006119d984828501611762565b91505092915050565b600080604083850312156119f557600080fd5b6000611a0385828601611762565b9250506020611a1485828601611762565b9150509250929050565b6000611a2a8383611aa5565b60408301905092915050565b6000611a428383611df0565b60208301905092915050565b611a57816122a8565b611a618184612308565b9250611a6c82612280565b8060005b83811015611a9d578151611a848782611a1e565b9650611a8f836122d4565b925050600181019050611a70565b505050505050565b611aae816122b3565b611ab88184612313565b9250611ac38261228a565b8060005b83811015611af4578151611adb8782611a36565b9650611ae6836122e1565b925050600181019050611ac7565b505050505050565b611b05816122b3565b611b0f818461231e565b9250611b1a8261228a565b8060005b83811015611b4b578151611b328782611a36565b9650611b3d836122e1565b925050600181019050611b1e565b505050505050565b611b5c816122be565b611b668184612329565b9250611b7182612294565b8060005b83811015611ba2578151611b898782611a36565b9650611b94836122ee565b925050600181019050611b75565b505050505050565b611bb3816122c9565b611bbd8184612334565b9250611bc88261229e565b8060005b83811015611bf9578151611be08782611a36565b9650611beb836122fb565b925050600181019050611bcc565b505050505050565b611c0a816123e0565b82525050565b611c21611c1c826123e0565b6124c2565b82525050565b611c3081612431565b82525050565b611c3f81612455565b82525050565b6000611c5260288361233f565b9150611c5d82612524565b604082019050919050565b6000611c7560368361233f565b9150611c8082612573565b604082019050919050565b6000611c9860258361233f565b9150611ca3826125c2565b604082019050919050565b6000611cbb60378361233f565b9150611cc682612611565b604082019050919050565b6000611cde60258361233f565b9150611ce982612660565b604082019050919050565b6000611d0160118361233f565b9150611d0c826126af565b602082019050919050565b6000611d2460258361233f565b9150611d2f826126d8565b604082019050919050565b6000611d4760288361233f565b9150611d5282612727565b604082019050919050565b6000611d6a603d8361233f565b9150611d7582612776565b604082019050919050565b6000611d8d603f8361233f565b9150611d98826127c5565b604082019050919050565b6000611db060308361233f565b9150611dbb82612814565b604082019050919050565b6000611dd360368361233f565b9150611dde82612863565b604082019050919050565b8082525050565b611df98161240a565b82525050565b611e088161240a565b82525050565b611e178161240a565b82525050565b611e2e611e298261240a565b6124cc565b82525050565b611e45611e4082612414565b6124d6565b82525050565b611e5481612424565b82525050565b611e6381612424565b82525050565b6000611e758284611c10565b60208201915081905092915050565b6000611e908284611e1d565b60208201915081905092915050565b6000611eab8285611e1d565b602082019150611ebb8284611e34565b6004820191508190509392505050565b600061050082019050611ee16000830187611afc565b611eee6040830186611a4e565b611efb60c0830185611afc565b611f09610100830184611b53565b95945050505050565b600061018082019050611f286000830187611afc565b611f356040830186611a4e565b611f4260c0830185611afc565b611f50610100830184611baa565b95945050505050565b6000602082019050611f6e6000830184611c01565b92915050565b6000606082019050611f896000830186611c01565b611f966020830185611dff565b611fa36040830184611dff565b949350505050565b6000602082019050611fc06000830184611c27565b92915050565b6000602082019050611fdb6000830184611c36565b92915050565b60006020820190508181036000830152611ffa81611c45565b9050919050565b6000602082019050818103600083015261201a81611c68565b9050919050565b6000602082019050818103600083015261203a81611c8b565b9050919050565b6000602082019050818103600083015261205a81611cae565b9050919050565b6000602082019050818103600083015261207a81611cd1565b9050919050565b6000602082019050818103600083015261209a81611cf4565b9050919050565b600060208201905081810360008301526120ba81611d17565b9050919050565b600060208201905081810360008301526120da81611d3a565b9050919050565b600060208201905081810360008301526120fa81611d5d565b9050919050565b6000602082019050818103600083015261211a81611d80565b9050919050565b6000602082019050818103600083015261213a81611da3565b9050919050565b6000602082019050818103600083015261215a81611dc6565b9050919050565b60006040820190506121766000830185611de9565b6121836020830184611e0e565b9392505050565b600060608201905061219f6000830186611de9565b6121ac6020830185611e5a565b6121b96040830184611e0e565b949350505050565b60006020820190506121d66000830184611dff565b92915050565b60006040820190506121f16000830185611dff565b6121fe6020830184611dff565b9392505050565b600060608201905061221a6000830186611dff565b6122276020830185611dff565b6122346040830184611dff565b949350505050565b60006020820190506122516000830184611e4b565b92915050565b600060408201905061226c6000830185611e4b565b6122796020830184611dff565b9392505050565b6000819050919050565b6000819050919050565b6000819050919050565b6000819050919050565b600060029050919050565b600060029050919050565b600060209050919050565b600060049050919050565b6000602082019050919050565b6000602082019050919050565b6000602082019050919050565b6000602082019050919050565b600081905092915050565b600081905092915050565b600081905092915050565b600081905092915050565b600081905092915050565b600082825260208201905092915050565b600061235b8261240a565b91506123668361240a565b9250827fffffffffffffffffffffffffffffffffffffffffffffffffffffffffffffffff0382111561239b5761239a6124e8565b5b828201905092915050565b60006123b182612414565b91506123bc83612414565b92508263ffffffff038211156123d5576123d46124e8565b5b828201905092915050565b6000819050919050565b600073ffffffffffffffffffffffffffffffffffffffff82169050919050565b6000819050919050565b600063ffffffff82169050919050565b600060ff82169050919050565b600061243c82612443565b9050919050565b600061244e826123ea565b9050919050565b600061246082612467565b9050919050565b6000612472826123ea565b9050919050565b60006124848261240a565b91507fffffffffffffffffffffffffffffffffffffffffffffffffffffffffffffffff8214156124b7576124b66124e8565b5b600182019050919050565b6000819050919050565b6000819050919050565b60006124e182612517565b9050919050565b7f4e487b7100000000000000000000000000000000000000000000000000000000600052601160045260246000fd5b60008160e01b9050919050565b7f5375626d6974207465616d48617368206f6620796f7572206c6173742073617660008201527f6564207465616d2e000000000000000000000000000000000000000000000000602082015250565b7f53656d6170686f7265436f72653a20796f752063616e6e6f742075736520746860008201527f652073616d65206e756c6c696669657220747769636500000000000000000000602082015250565b7f53656d6170686f726547726f7570733a2067726f757020616c7265616479206560008201527f7869737473000000000000000000000000000000000000000000000000000000602082015250565b7f436f6e7465737420636c6f73656420666f72205465616d207375626d6973737360008201527f696f6e20692e6520656e642074696d6520706173736564000000000000000000602082015250565b7f55736572206861766520616c7265616479206a6f696e65642074686520636f6e60008201527f746573742e000000000000000000000000000000000000000000000000000000602082015250565b7f4e6f207465616d207375626d6974746564000000000000000000000000000000600082015250565b7f53656d6170686f726547726f7570733a2067726f757020646f6573206e6f742060008201527f6578697374000000000000000000000000000000000000000000000000000000602082015250565b7f416c726561647920706f737465642061207465616d202c20747279207570646160008201527f74696e672069742e000000000000000000000000000000000000000000000000602082015250565b7f5465616d20646f6e27742065786973742c2043616e277420757064617465207460008201527f65616d2e20506c6561736520666972737420637265617465207465616d000000602082015250565b7f436f6e7465737420636c6f73656420666f72206e6577206d656d626572732c2060008201527f5465616d207375626d697373696f6e20656e642074696d652070617373656400602082015250565b7f5465616d205375626d697373696f6e20656e642074696d652073686f756c642060008201527f626520696e207468652066757475726500000000000000000000000000000000602082015250565b7f53656d6170686f726547726f7570733a2067726f7570206964206d757374206260008201527f65203c20534e41524b5f5343414c41525f4649454c4400000000000000000000602082015250565b6128bb816123e0565b81146128c657600080fd5b50565b6128d28161240a565b81146128dd57600080fd5b5056fea2646970667358221220505dd4a48e8677a6155df5ea8fc7601d75c88cf69f378f305e81ef28b02770df64736f6c63430008040033",
  "linkReferences": {
    "@zk-kit/incremental-merkle-tree.sol/contracts/IncrementalBinaryTree.sol": {
      "IncrementalBinaryTree": [
        {
          "length": 20,
          "start": 4752
        },
        {
          "length": 20,
          "start": 6115
        }
      ]
    }
  },
  "deployedLinkReferences": {
    "@zk-kit/incremental-merkle-tree.sol/contracts/IncrementalBinaryTree.sol": {
      "IncrementalBinaryTree": [
        {
          "length": 20,
          "start": 4177
        },
        {
          "length": 20,
          "start": 5540
        }
      ]
    }
  }
}