{
  "_format": "hh-sol-artifact-1",
  "contractName": "TrueFantasySports",
  "sourceName": "contracts/TrueFantasySports.sol",
  "abi": [
    {
      "inputs": [
        {
          "internalType": "uint8",
          "name": "_treeDepth",
          "type": "uint8"
        },
        {
          "internalType": "contract IVerifier",
          "name": "_semaphoreMembershipVerifier",
          "type": "address"
        },
        {
          "internalType": "contract IScoreAndTeamVerifier",
          "name": "_scoreAndTeamVerifier",
          "type": "address"
        }
      ],
      "stateMutability": "nonpayable",
      "type": "constructor"
    },
    {
      "anonymous": false,
      "inputs": [
        {
          "indexed": true,
          "internalType": "uint256",
          "name": "contestGroupId",
          "type": "uint256"
        },
        {
          "indexed": false,
          "internalType": "bytes32",
          "name": "contestName",
          "type": "bytes32"
        },
        {
          "indexed": true,
          "internalType": "uint256",
          "name": "matchId",
          "type": "uint256"
        },
        {
          "indexed": false,
          "internalType": "uint256",
          "name": "entryFee",
          "type": "uint256"
        },
        {
          "indexed": false,
          "internalType": "uint256",
          "name": "teamSubmissionEndTime",
          "type": "uint256"
        },
        {
          "indexed": false,
          "internalType": "uint256",
          "name": "contestCompletionTime",
          "type": "uint256"
        }
      ],
      "name": "ContestCreated",
      "type": "event"
    },
    {
      "anonymous": false,
      "inputs": [
        {
          "indexed": true,
          "internalType": "uint256",
          "name": "groupId",
          "type": "uint256"
        },
        {
          "indexed": false,
          "internalType": "uint8",
          "name": "depth",
          "type": "uint8"
        },
        {
          "indexed": false,
          "internalType": "uint256",
          "name": "zeroValue",
          "type": "uint256"
        }
      ],
      "name": "GroupCreated",
      "type": "event"
    },
    {
      "anonymous": false,
      "inputs": [
        {
          "indexed": true,
          "internalType": "uint256",
          "name": "groupId",
          "type": "uint256"
        },
        {
          "indexed": false,
          "internalType": "uint256",
          "name": "identityCommitment",
          "type": "uint256"
        },
        {
          "indexed": false,
          "internalType": "uint256",
          "name": "root",
          "type": "uint256"
        }
      ],
      "name": "MemberAdded",
      "type": "event"
    },
    {
      "anonymous": false,
      "inputs": [
        {
          "indexed": true,
          "internalType": "uint256",
          "name": "groupId",
          "type": "uint256"
        },
        {
          "indexed": false,
          "internalType": "uint256",
          "name": "identityCommitment",
          "type": "uint256"
        },
        {
          "indexed": false,
          "internalType": "uint256",
          "name": "root",
          "type": "uint256"
        }
      ],
      "name": "MemberRemoved",
      "type": "event"
    },
    {
      "anonymous": false,
      "inputs": [
        {
          "indexed": false,
          "internalType": "uint256",
          "name": "nullifierHash",
          "type": "uint256"
        }
      ],
      "name": "NullifierHashAdded",
      "type": "event"
    },
    {
      "anonymous": false,
      "inputs": [
        {
          "indexed": true,
          "internalType": "uint256",
          "name": "groupId",
          "type": "uint256"
        },
        {
          "indexed": false,
          "internalType": "bytes32",
          "name": "signal",
          "type": "bytes32"
        }
      ],
      "name": "TeamPosted",
      "type": "event"
    },
    {
      "anonymous": false,
      "inputs": [
        {
          "indexed": true,
          "internalType": "uint256",
          "name": "groupId",
          "type": "uint256"
        },
        {
          "indexed": true,
          "internalType": "uint256",
          "name": "teamHash",
          "type": "uint256"
        },
        {
          "indexed": false,
          "internalType": "uint256",
          "name": "score",
          "type": "uint256"
        }
      ],
      "name": "TeamScore",
      "type": "event"
    },
    {
      "inputs": [
        {
          "internalType": "uint256",
          "name": "_contestId",
          "type": "uint256"
        },
        {
          "internalType": "uint256",
          "name": "_identityCommitment",
          "type": "uint256"
        }
      ],
      "name": "addMember",
      "outputs": [],
      "stateMutability": "nonpayable",
      "type": "function"
    },
    {
      "inputs": [
        {
          "internalType": "bytes32",
          "name": "_contestName",
          "type": "bytes32"
        },
        {
          "internalType": "uint256",
          "name": "_matchId",
          "type": "uint256"
        },
        {
          "internalType": "uint256",
          "name": "_teamSubmissionEndTime",
          "type": "uint256"
        },
        {
          "internalType": "uint256",
          "name": "_contestCompletionTime",
          "type": "uint256"
        },
        {
          "internalType": "uint256",
          "name": "_entryFee",
          "type": "uint256"
        },
        {
          "internalType": "uint256",
          "name": "_identityCommitment",
          "type": "uint256"
        }
      ],
      "name": "createContest",
      "outputs": [],
      "stateMutability": "nonpayable",
      "type": "function"
    },
    {
      "inputs": [
        {
          "internalType": "uint256",
          "name": "contestId",
          "type": "uint256"
        }
      ],
      "name": "getContest",
      "outputs": [
        {
          "internalType": "uint256",
          "name": "matchId",
          "type": "uint256"
        },
        {
          "internalType": "uint256",
          "name": "teamSubmissionEndTime",
          "type": "uint256"
        },
        {
          "internalType": "uint256",
          "name": "entryfee",
          "type": "uint256"
        },
        {
          "internalType": "uint256",
          "name": "contestCompletionTime",
          "type": "uint256"
        }
      ],
      "stateMutability": "view",
      "type": "function"
    },
    {
      "inputs": [
        {
          "internalType": "uint256",
          "name": "groupId",
          "type": "uint256"
        }
      ],
      "name": "getDepth",
      "outputs": [
        {
          "internalType": "uint8",
          "name": "",
          "type": "uint8"
        }
      ],
      "stateMutability": "view",
      "type": "function"
    },
    {
      "inputs": [
        {
          "internalType": "uint256",
          "name": "_contestId",
          "type": "uint256"
        }
      ],
      "name": "getHighestScore",
      "outputs": [
        {
          "internalType": "uint256",
          "name": "",
          "type": "uint256"
        }
      ],
      "stateMutability": "view",
      "type": "function"
    },
    {
      "inputs": [
        {
          "internalType": "uint256",
          "name": "groupId",
          "type": "uint256"
        }
      ],
      "name": "getNumberOfLeaves",
      "outputs": [
        {
          "internalType": "uint256",
          "name": "",
          "type": "uint256"
        }
      ],
      "stateMutability": "view",
      "type": "function"
    },
    {
      "inputs": [
        {
          "internalType": "uint256",
          "name": "groupId",
          "type": "uint256"
        }
      ],
      "name": "getRoot",
      "outputs": [
        {
          "internalType": "uint256",
          "name": "",
          "type": "uint256"
        }
      ],
      "stateMutability": "view",
      "type": "function"
    },
    {
      "inputs": [
        {
          "internalType": "uint256",
          "name": "nullifierHash",
          "type": "uint256"
        }
      ],
      "name": "getUserNullifierCount",
      "outputs": [
        {
          "internalType": "uint256",
          "name": "count",
          "type": "uint256"
        }
      ],
      "stateMutability": "view",
      "type": "function"
    },
    {
      "inputs": [
        {
          "internalType": "uint256",
          "name": "_contestId",
          "type": "uint256"
        },
        {
          "internalType": "uint256",
          "name": "_nullifierHash",
          "type": "uint256"
        }
      ],
      "name": "getYourScore",
      "outputs": [
        {
          "internalType": "uint256",
          "name": "",
          "type": "uint256"
        }
      ],
      "stateMutability": "view",
      "type": "function"
    },
    {
      "inputs": [
        {
          "internalType": "bytes32",
          "name": "_teamIdentifier",
          "type": "bytes32"
        },
        {
          "internalType": "bytes32",
          "name": "_teamHash",
          "type": "bytes32"
        },
        {
          "internalType": "uint256",
          "name": "_nullifierHash",
          "type": "uint256"
        },
        {
          "internalType": "uint256",
          "name": "_contestId",
          "type": "uint256"
        },
        {
          "internalType": "uint256[8]",
          "name": "_proof",
          "type": "uint256[8]"
        }
      ],
      "name": "postTeam",
      "outputs": [],
      "stateMutability": "nonpayable",
      "type": "function"
    },
    {
      "inputs": [],
      "name": "scoreAndTeamVerifier",
      "outputs": [
        {
          "internalType": "contract IScoreAndTeamVerifier",
          "name": "",
          "type": "address"
        }
      ],
      "stateMutability": "view",
      "type": "function"
    },
    {
      "inputs": [],
      "name": "semaphoreMembershipVerifier",
      "outputs": [
        {
          "internalType": "contract IVerifier",
          "name": "",
          "type": "address"
        }
      ],
      "stateMutability": "view",
      "type": "function"
    },
    {
      "inputs": [
        {
          "internalType": "bytes32",
          "name": "_teamIdentifier",
          "type": "bytes32"
        },
        {
          "internalType": "uint256",
          "name": "_initialNullifierHash",
          "type": "uint256"
        },
        {
          "internalType": "uint256",
          "name": "_newNullifierHash",
          "type": "uint256"
        },
        {
          "internalType": "uint256",
          "name": "_contestId",
          "type": "uint256"
        },
        {
          "internalType": "uint256[8]",
          "name": "_semaphoreProof",
          "type": "uint256[8]"
        },
        {
          "internalType": "uint256",
          "name": "_score",
          "type": "uint256"
        },
        {
          "internalType": "uint256",
          "name": "_teamHash",
          "type": "uint256"
        },
        {
          "internalType": "uint256[30]",
          "name": "_playersScorecard",
          "type": "uint256[30]"
        },
        {
          "internalType": "uint256[8]",
          "name": "_teamAndScoreProof",
          "type": "uint256[8]"
        }
      ],
      "name": "submitTeamScore",
      "outputs": [],
      "stateMutability": "nonpayable",
      "type": "function"
    },
    {
      "inputs": [],
      "name": "treeDepth",
      "outputs": [
        {
          "internalType": "uint8",
          "name": "",
          "type": "uint8"
        }
      ],
      "stateMutability": "view",
      "type": "function"
    },
    {
      "inputs": [
        {
          "internalType": "bytes32",
          "name": "_teamIdentifier",
          "type": "bytes32"
        },
        {
          "internalType": "bytes32",
          "name": "_teamHash",
          "type": "bytes32"
        },
        {
          "internalType": "uint256",
          "name": "_initialNullifierHash",
          "type": "uint256"
        },
        {
          "internalType": "uint256",
          "name": "_newNullifierHash",
          "type": "uint256"
        },
        {
          "internalType": "uint256",
          "name": "_contestId",
          "type": "uint256"
        },
        {
          "internalType": "uint256[8]",
          "name": "_proof",
          "type": "uint256[8]"
        }
      ],
      "name": "updateTeam",
      "outputs": [],
      "stateMutability": "nonpayable",
      "type": "function"
    }
  ],
  "bytecode": "0x60806040523480156200001157600080fd5b5060405162002cc138038062002cc1833981810160405281019062000037919062000122565b82600960006101000a81548160ff021916908360ff16021790555081600960016101000a81548173ffffffffffffffffffffffffffffffffffffffff021916908373ffffffffffffffffffffffffffffffffffffffff16021790555080600a60006101000a81548173ffffffffffffffffffffffffffffffffffffffff021916908373ffffffffffffffffffffffffffffffffffffffff1602179055505050506200022f565b600081519050620000ee81620001e1565b92915050565b6000815190506200010581620001fb565b92915050565b6000815190506200011c8162000215565b92915050565b6000806000606084860312156200013857600080fd5b600062000148868287016200010b565b93505060206200015b86828701620000f4565b92505060406200016e86828701620000dd565b9150509250925092565b60006200018582620001b4565b9050919050565b6000620001998262000178565b9050919050565b6000620001ad8262000178565b9050919050565b600073ffffffffffffffffffffffffffffffffffffffff82169050919050565b600060ff82169050919050565b620001ec816200018c565b8114620001f857600080fd5b50565b6200020681620001a0565b81146200021257600080fd5b50565b6200022081620001d4565b81146200022c57600080fd5b50565b612a82806200023f6000396000f3fe608060405234801561001057600080fd5b50600436106100f55760003560e01c80636fd6d846116100975780639b24b3b0116100665780639b24b3b01461029b578063b9c78c2b146102cb578063bcd4cfda146102fb578063ee1d248114610317576100f5565b80636fd6d846146101ea57806375e618c914610208578063904b9f721461023857806399c6bfe91461026b576100f5565b80633b7c8d53116100d35780633b7c8d531461015057806340dd6a9f14610180578063585e58bb1461019e57806365ad434d146101ce576100f5565b806316a56c41146100fa5780631783efc3146101185780633ac91aef14610134575b600080fd5b610102610333565b60405161010f91906123a8565b60405180910390f35b610132600480360381019061012d9190611b32565b610346565b005b61014e60048036038101906101499190611a80565b61045b565b005b61016a60048036038101906101659190611b09565b6105d3565b604051610177919061231f565b60405180910390f35b610188610606565b6040516101959190612109565b60405180910390f35b6101b860048036038101906101b39190611b32565b61062c565b6040516101c5919061231f565b60405180910390f35b6101e860048036038101906101e391906118b5565b61065b565b005b6101f261080e565b6040516101ff9190612124565b60405180910390f35b610222600480360381019061021d9190611b09565b610834565b60405161022f91906123a8565b60405180910390f35b610252600480360381019061024d9190611b09565b610861565b6040516102629493929190612363565b60405180910390f35b61028560048036038101906102809190611b09565b6108d2565b604051610292919061231f565b60405180910390f35b6102b560048036038101906102b09190611b09565b6108ef565b6040516102c2919061231f565b60405180910390f35b6102e560048036038101906102e09190611b09565b61090f565b6040516102f2919061231f565b60405180910390f35b6103156004803603810190610310919061192d565b61092f565b005b610331600480360381019061032c91906119b7565b610ac4565b005b600960009054906101000a900460ff1681565b6002600083815260200190815260200160002060030154421061039e576040517f08c379a00000000000000000000000000000000000000000000000000000000081526004016103959061225f565b60405180910390fd5b60066000838152602001908152602001600020600082815260200190815260200160002060009054906101000a900460ff1615610410576040517f08c379a0000000000000000000000000000000000000000000000000000000008152600401610407906121bf565b60405180910390fd5b61041a828261112b565b600160066000848152602001908152602001600020600083815260200190815260200160002060006101000a81548160ff0219169083151502179055505050565b83421061049d576040517f08c379a00000000000000000000000000000000000000000000000000000000081526004016104949061227f565b60405180910390fd5b60006104a887611243565b90506104c581600960009054906101000a900460ff16600061127a565b60006002600083815260200190815260200160002090508181600001819055508681600101819055508581600301819055508481600201819055508381600401819055506008600088815260200190815260200160002082908060018154018082558091505060019003906000526020600020016000909190919091505561054d828461112b565b600160066000848152602001908152602001600020600085815260200190815260200160002060006101000a81548160ff02191690831515021790555086827f84eba9bda70a4af06c7d9da5968df1be66d8dba59f2cb6a5f7bbc1cf04071e918a878a8a6040516105c194939291906120c4565b60405180910390a35050505050505050565b60006004600083815260200190815260200160002060009054906101000a900463ffffffff1663ffffffff169050919050565b600a60009054906101000a900473ffffffffffffffffffffffffffffffffffffffff1681565b600060056000848152602001908152602001600020600083815260200190815260200160002054905092915050565b600260008381526020019081526020016000206003015442106106b3576040517f08c379a00000000000000000000000000000000000000000000000000000000081526004016106aa9061219f565b60405180910390fd5b60006004600085815260200190815260200160002060009054906101000a900463ffffffff1663ffffffff161461071f576040517f08c379a00000000000000000000000000000000000000000000000000000000081526004016107169061221f565b60405180910390fd5b60006001600084815260200190815260200160002060010154905061076a8682868686600960019054906101000a900473ffffffffffffffffffffffffffffffffffffffff166113e8565b6107748486611741565b61077d8461175d565b60016004600086815260200190815260200160002060008282829054906101000a900463ffffffff166107b09190612512565b92506101000a81548163ffffffff021916908363ffffffff160217905550827fe7debf6391b9ab30850b4d579d40b04fb9172bf845efd80ab69e37c97dbcb516876040516107fe91906120a9565b60405180910390a2505050505050565b600960019054906101000a900473ffffffffffffffffffffffffffffffffffffffff1681565b60006001600083815260200190815260200160002060000160009054906101000a900460ff169050919050565b600080600080600260008681526020019081526020016000206001015460026000878152602001908152602001600020600301546002600088815260200190815260200160002060040154600260008981526020019081526020016000206002015493509350935093509193509193565b600060036000838152602001908152602001600020549050919050565b600060016000838152602001908152602001600020600101549050919050565b600060016000838152602001908152602001600020600201549050919050565b60006004600086815260200190815260200160002060009054906101000a900463ffffffff1663ffffffff16141561099c576040517f08c379a00000000000000000000000000000000000000000000000000000000081526004016109939061223f565b60405180910390fd5b60006001600084815260200190815260200160002060010154905060006004600087815260200190815260200160002060009054906101000a900463ffffffff16905060006109eb858361178b565b9050610a1d8984888488600960019054906101000a900473ffffffffffffffffffffffffffffffffffffffff166113e8565b610a278789611741565b610a308661175d565b60016004600089815260200190815260200160002060008282829054906101000a900463ffffffff16610a639190612512565b92506101000a81548163ffffffff021916908363ffffffff160217905550847fe7debf6391b9ab30850b4d579d40b04fb9172bf845efd80ab69e37c97dbcb5168a604051610ab191906120a9565b60405180910390a2505050505050505050565b6000600460008a815260200190815260200160002060009054906101000a900463ffffffff1663ffffffff1611610b30576040517f08c379a0000000000000000000000000000000000000000000000000000000008152600401610b27906121df565b60405180910390fd5b6000600160008881526020019081526020016000206001015490506000600460008b815260200190815260200160002060009054906101000a900463ffffffff1690506000610b7f898361178b565b9050610bb18c848c848c600960019054906101000a900473ffffffffffffffffffffffffffffffffffffffff166113e8565b6000610bbc876117c5565b905080600760008e81526020019081526020016000205414610c13576040517f08c379a0000000000000000000000000000000000000000000000000000000008152600401610c0a9061213f565b60405180910390fd5b610c1b61182c565b8881600060208110610c56577f4e487b7100000000000000000000000000000000000000000000000000000000600052603260045260246000fd5b6020020181815250508781600160208110610c9a577f4e487b7100000000000000000000000000000000000000000000000000000000600052603260045260246000fd5b60200201818152505060005b601e811015610d4e578781601e8110610ce8577f4e487b7100000000000000000000000000000000000000000000000000000000600052603260045260246000fd5b602002013582600283610cfb91906124bc565b60208110610d32577f4e487b7100000000000000000000000000000000000000000000000000000000600052603260045260246000fd5b6020020181815250508080610d46906125e5565b915050610ca6565b50600a60009054906101000a900473ffffffffffffffffffffffffffffffffffffffff1673ffffffffffffffffffffffffffffffffffffffff16633cc08b24604051806040016040528089600060088110610dd2577f4e487b7100000000000000000000000000000000000000000000000000000000600052603260045260246000fd5b6020020135815260200189600160088110610e16577f4e487b7100000000000000000000000000000000000000000000000000000000600052603260045260246000fd5b6020020135815250604051806040016040528060405180604001604052808c600260088110610e6e577f4e487b7100000000000000000000000000000000000000000000000000000000600052603260045260246000fd5b602002013581526020018c600360088110610eb2577f4e487b7100000000000000000000000000000000000000000000000000000000600052603260045260246000fd5b6020020135815250815260200160405180604001604052808c600460088110610f04577f4e487b7100000000000000000000000000000000000000000000000000000000600052603260045260246000fd5b602002013581526020018c600560088110610f48577f4e487b7100000000000000000000000000000000000000000000000000000000600052603260045260246000fd5b602002013581525081525060405180604001604052808b600660088110610f98577f4e487b7100000000000000000000000000000000000000000000000000000000600052603260045260246000fd5b602002013581526020018b600760088110610fdc577f4e487b7100000000000000000000000000000000000000000000000000000000600052603260045260246000fd5b6020020135815250856040518563ffffffff1660e01b8152600401611004949392919061201b565b60006040518083038186803b15801561101c57600080fd5b505afa158015611030573d6000803e3d6000fd5b5050505088600560008d815260200190815260200160002060008f8152602001908152602001600020819055506001600460008f815260200190815260200160002060008282829054906101000a900463ffffffff166110909190612512565b92506101000a81548163ffffffff021916908363ffffffff16021790555088600360008d81526020019081526020016000205410156110e25788600360008d8152602001908152602001600020819055505b878b7f8f3ba46937c6a2286944616f89478856a5d6a718ff6de89a27fe0fed5d6e5c448b604051611113919061231f565b60405180910390a35050505050505050505050505050565b600061113683610834565b60ff16141561117a576040517f08c379a0000000000000000000000000000000000000000000000000000000008152600401611171906121ff565b60405180910390fd5b6001600083815260200190815260200160002073__$4c0484323457fe1a856f46a4759b553fe4$__63168703fa9091836040518363ffffffff1660e01b81526004016111c79291906122bf565b60006040518083038186803b1580156111df57600080fd5b505af41580156111f3573d6000803e3d6000fd5b505050506000611202836108ef565b9050827f03fd27265b7dd1f55558bedc22a58fa3b10afb1be776e614bd5a7ba7b9499406838360405161123692919061233a565b60405180910390a2505050565b60006008826040516020016112589190611fb9565b6040516020818303038152906040528051906020012060001c901c9050919050565b7f30644e72e131a029b85045b68181585d2833e84879b9709143e1f593f000000183106112dc576040517f08c379a00000000000000000000000000000000000000000000000000000000081526004016112d39061229f565b60405180910390fd5b60006112e784610834565b60ff161461132a576040517f08c379a00000000000000000000000000000000000000000000000000000000081526004016113219061217f565b60405180910390fd5b6001600084815260200190815260200160002073__$4c0484323457fe1a856f46a4759b553fe4$__63b4bdd117909184846040518463ffffffff1660e01b8152600401611379939291906122e8565b60006040518083038186803b15801561139157600080fd5b505af41580156113a5573d6000803e3d6000fd5b50505050827fc3082aa494e9088c2c9f0fb62a0b6bd46e6699acb94cfba35be29b95a93f68c883836040516113db9291906123c3565b60405180910390a2505050565b60008085815260200190815260200160002060009054906101000a900460ff1615611448576040517f08c379a000000000000000000000000000000000000000000000000000000000815260040161143f9061215f565b60405180910390fd5b6000611453876117f5565b90508173ffffffffffffffffffffffffffffffffffffffff16635fe8c13b6040518060400160405280866000600881106114b6577f4e487b7100000000000000000000000000000000000000000000000000000000600052603260045260246000fd5b60200201358152602001866001600881106114fa577f4e487b7100000000000000000000000000000000000000000000000000000000600052603260045260246000fd5b60200201358152506040518060400160405280604051806040016040528089600260088110611552577f4e487b7100000000000000000000000000000000000000000000000000000000600052603260045260246000fd5b6020020135815260200189600360088110611596577f4e487b7100000000000000000000000000000000000000000000000000000000600052603260045260246000fd5b602002013581525081526020016040518060400160405280896004600881106115e8577f4e487b7100000000000000000000000000000000000000000000000000000000600052603260045260246000fd5b602002013581526020018960056008811061162c577f4e487b7100000000000000000000000000000000000000000000000000000000600052603260045260246000fd5b602002013581525081525060405180604001604052808860066008811061167c577f4e487b7100000000000000000000000000000000000000000000000000000000600052603260045260246000fd5b60200201358152602001886007600881106116c0577f4e487b7100000000000000000000000000000000000000000000000000000000600052603260045260246000fd5b602002013581525060405180608001604052808c81526020018b81526020018781526020018a8152506040518563ffffffff1660e01b81526004016117089493929190612062565b60006040518083038186803b15801561172057600080fd5b505afa158015611734573d6000803e3d6000fd5b5050505050505050505050565b8060076000848152602001908152602001600020819055505050565b600160008083815260200190815260200160002060006101000a81548160ff02191690831515021790555050565b6000600883836040516020016117a2929190611fef565b6040516020818303038152906040528051906020012060001c901c905092915050565b6000816040516020016117d89190611fd4565b604051602081830303815290604052805190602001209050919050565b600060088260405160200161180a9190611fb9565b6040516020818303038152906040528051906020012060001c901c9050919050565b604051806104000160405280602090602082028036833780820191505090505090565b6000819050826020601e028201111561186757600080fd5b92915050565b60008190508260206008028201111561188557600080fd5b92915050565b60008135905061189a81612a1e565b92915050565b6000813590506118af81612a35565b92915050565b600080600080600061018086880312156118ce57600080fd5b60006118dc8882890161188b565b95505060206118ed8882890161188b565b94505060406118fe888289016118a0565b935050606061190f888289016118a0565b92505060806119208882890161186d565b9150509295509295909350565b6000806000806000806101a0878903121561194757600080fd5b600061195589828a0161188b565b965050602061196689828a0161188b565b955050604061197789828a016118a0565b945050606061198889828a016118a0565b935050608061199989828a016118a0565b92505060a06119aa89828a0161186d565b9150509295509295509295565b60008060008060008060008060006106808a8c0312156119d657600080fd5b60006119e48c828d0161188b565b99505060206119f58c828d016118a0565b9850506040611a068c828d016118a0565b9750506060611a178c828d016118a0565b9650506080611a288c828d0161186d565b955050610180611a3a8c828d016118a0565b9450506101a0611a4c8c828d016118a0565b9350506101c0611a5e8c828d0161184f565b925050610580611a708c828d0161186d565b9150509295985092959850929598565b60008060008060008060c08789031215611a9957600080fd5b6000611aa789828a0161188b565b9650506020611ab889828a016118a0565b9550506040611ac989828a016118a0565b9450506060611ada89828a016118a0565b9350506080611aeb89828a016118a0565b92505060a0611afc89828a016118a0565b9150509295509295509295565b600060208284031215611b1b57600080fd5b6000611b29848285016118a0565b91505092915050565b60008060408385031215611b4557600080fd5b6000611b53858286016118a0565b9250506020611b64858286016118a0565b9150509250929050565b6000611b7a8383611bf5565b60408301905092915050565b6000611b928383611f40565b60208301905092915050565b611ba781612414565b611bb18184612474565b9250611bbc826123ec565b8060005b83811015611bed578151611bd48782611b6e565b9650611bdf83612440565b925050600181019050611bc0565b505050505050565b611bfe8161241f565b611c08818461247f565b9250611c13826123f6565b8060005b83811015611c44578151611c2b8782611b86565b9650611c368361244d565b925050600181019050611c17565b505050505050565b611c558161241f565b611c5f818461248a565b9250611c6a826123f6565b8060005b83811015611c9b578151611c828782611b86565b9650611c8d8361244d565b925050600181019050611c6e565b505050505050565b611cac8161242a565b611cb68184612495565b9250611cc182612400565b8060005b83811015611cf2578151611cd98782611b86565b9650611ce48361245a565b925050600181019050611cc5565b505050505050565b611d0381612435565b611d0d81846124a0565b9250611d188261240a565b8060005b83811015611d49578151611d308782611b86565b9650611d3b83612467565b925050600181019050611d1c565b505050505050565b611d5a8161254c565b82525050565b611d71611d6c8261254c565b61262e565b82525050565b611d808161259d565b82525050565b611d8f816125c1565b82525050565b6000611da26028836124ab565b9150611dad82612690565b604082019050919050565b6000611dc56036836124ab565b9150611dd0826126df565b604082019050919050565b6000611de86025836124ab565b9150611df38261272e565b604082019050919050565b6000611e0b6037836124ab565b9150611e168261277d565b604082019050919050565b6000611e2e6025836124ab565b9150611e39826127cc565b604082019050919050565b6000611e516011836124ab565b9150611e5c8261281b565b602082019050919050565b6000611e746025836124ab565b9150611e7f82612844565b604082019050919050565b6000611e976028836124ab565b9150611ea282612893565b604082019050919050565b6000611eba603d836124ab565b9150611ec5826128e2565b604082019050919050565b6000611edd603f836124ab565b9150611ee882612931565b604082019050919050565b6000611f006030836124ab565b9150611f0b82612980565b604082019050919050565b6000611f236036836124ab565b9150611f2e826129cf565b604082019050919050565b8082525050565b611f4981612576565b82525050565b611f5881612576565b82525050565b611f6781612576565b82525050565b611f7e611f7982612576565b612638565b82525050565b611f95611f9082612580565b612642565b82525050565b611fa481612590565b82525050565b611fb381612590565b82525050565b6000611fc58284611d60565b60208201915081905092915050565b6000611fe08284611f6d565b60208201915081905092915050565b6000611ffb8285611f6d565b60208201915061200b8284611f84565b6004820191508190509392505050565b6000610500820190506120316000830187611c4c565b61203e6040830186611b9e565b61204b60c0830185611c4c565b612059610100830184611ca3565b95945050505050565b6000610180820190506120786000830187611c4c565b6120856040830186611b9e565b61209260c0830185611c4c565b6120a0610100830184611cfa565b95945050505050565b60006020820190506120be6000830184611d51565b92915050565b60006080820190506120d96000830187611d51565b6120e66020830186611f4f565b6120f36040830185611f4f565b6121006060830184611f4f565b95945050505050565b600060208201905061211e6000830184611d77565b92915050565b60006020820190506121396000830184611d86565b92915050565b6000602082019050818103600083015261215881611d95565b9050919050565b6000602082019050818103600083015261217881611db8565b9050919050565b6000602082019050818103600083015261219881611ddb565b9050919050565b600060208201905081810360008301526121b881611dfe565b9050919050565b600060208201905081810360008301526121d881611e21565b9050919050565b600060208201905081810360008301526121f881611e44565b9050919050565b6000602082019050818103600083015261221881611e67565b9050919050565b6000602082019050818103600083015261223881611e8a565b9050919050565b6000602082019050818103600083015261225881611ead565b9050919050565b6000602082019050818103600083015261227881611ed0565b9050919050565b6000602082019050818103600083015261229881611ef3565b9050919050565b600060208201905081810360008301526122b881611f16565b9050919050565b60006040820190506122d46000830185611f39565b6122e16020830184611f5e565b9392505050565b60006060820190506122fd6000830186611f39565b61230a6020830185611faa565b6123176040830184611f5e565b949350505050565b60006020820190506123346000830184611f4f565b92915050565b600060408201905061234f6000830185611f4f565b61235c6020830184611f4f565b9392505050565b60006080820190506123786000830187611f4f565b6123856020830186611f4f565b6123926040830185611f4f565b61239f6060830184611f4f565b95945050505050565b60006020820190506123bd6000830184611f9b565b92915050565b60006040820190506123d86000830185611f9b565b6123e56020830184611f4f565b9392505050565b6000819050919050565b6000819050919050565b6000819050919050565b6000819050919050565b600060029050919050565b600060029050919050565b600060209050919050565b600060049050919050565b6000602082019050919050565b6000602082019050919050565b6000602082019050919050565b6000602082019050919050565b600081905092915050565b600081905092915050565b600081905092915050565b600081905092915050565b600081905092915050565b600082825260208201905092915050565b60006124c782612576565b91506124d283612576565b9250827fffffffffffffffffffffffffffffffffffffffffffffffffffffffffffffffff0382111561250757612506612654565b5b828201905092915050565b600061251d82612580565b915061252883612580565b92508263ffffffff0382111561254157612540612654565b5b828201905092915050565b6000819050919050565b600073ffffffffffffffffffffffffffffffffffffffff82169050919050565b6000819050919050565b600063ffffffff82169050919050565b600060ff82169050919050565b60006125a8826125af565b9050919050565b60006125ba82612556565b9050919050565b60006125cc826125d3565b9050919050565b60006125de82612556565b9050919050565b60006125f082612576565b91507fffffffffffffffffffffffffffffffffffffffffffffffffffffffffffffffff82141561262357612622612654565b5b600182019050919050565b6000819050919050565b6000819050919050565b600061264d82612683565b9050919050565b7f4e487b7100000000000000000000000000000000000000000000000000000000600052601160045260246000fd5b60008160e01b9050919050565b7f5375626d6974207465616d48617368206f6620796f7572206c6173742073617660008201527f6564207465616d2e000000000000000000000000000000000000000000000000602082015250565b7f53656d6170686f7265436f72653a20796f752063616e6e6f742075736520746860008201527f652073616d65206e756c6c696669657220747769636500000000000000000000602082015250565b7f53656d6170686f726547726f7570733a2067726f757020616c7265616479206560008201527f7869737473000000000000000000000000000000000000000000000000000000602082015250565b7f436f6e7465737420636c6f73656420666f72205465616d207375626d6973737360008201527f696f6e20692e6520656e642074696d6520706173736564000000000000000000602082015250565b7f55736572206861766520616c7265616479206a6f696e65642074686520636f6e60008201527f746573742e000000000000000000000000000000000000000000000000000000602082015250565b7f4e6f207465616d207375626d6974746564000000000000000000000000000000600082015250565b7f53656d6170686f726547726f7570733a2067726f757020646f6573206e6f742060008201527f6578697374000000000000000000000000000000000000000000000000000000602082015250565b7f416c726561647920706f737465642061207465616d202c20747279207570646160008201527f74696e672069742e000000000000000000000000000000000000000000000000602082015250565b7f5465616d20646f6e27742065786973742c2043616e277420757064617465207460008201527f65616d2e20506c6561736520666972737420637265617465207465616d000000602082015250565b7f436f6e7465737420636c6f73656420666f72206e6577206d656d626572732c2060008201527f5465616d207375626d697373696f6e20656e642074696d652070617373656400602082015250565b7f5465616d205375626d697373696f6e20656e642074696d652073686f756c642060008201527f626520696e207468652066757475726500000000000000000000000000000000602082015250565b7f53656d6170686f726547726f7570733a2067726f7570206964206d757374206260008201527f65203c20534e41524b5f5343414c41525f4649454c4400000000000000000000602082015250565b612a278161254c565b8114612a3257600080fd5b50565b612a3e81612576565b8114612a4957600080fd5b5056fea2646970667358221220fb134db51eed9db47465ef790b40ea98c6e8f64cd641966a0843ce9988c5e3d364736f6c63430008040033",
  "linkReferences": {
    "@zk-kit/incremental-merkle-tree.sol/contracts/IncrementalBinaryTree.sol": {
      "IncrementalBinaryTree": [
        {
          "length": 20,
          "start": 5070
        },
        {
          "length": 20,
          "start": 5502
        }
      ]
    }
  },
  "deployedLinkReferences": {
    "@zk-kit/incremental-merkle-tree.sol/contracts/IncrementalBinaryTree.sol": {
      "IncrementalBinaryTree": [
        {
          "length": 20,
          "start": 4495
        },
        {
          "length": 20,
          "start": 4927
        }
      ]
    }
  }
}